{
    "contractName": "CuratorToken",
    "abi": [
        {
            "inputs": [],
            "stateMutability": "nonpayable",
            "type": "constructor"
        },
        {
            "anonymous": false,
            "inputs": [
                {
                    "indexed": true,
                    "internalType": "address",
                    "name": "owner",
                    "type": "address"
                },
                {
                    "indexed": true,
                    "internalType": "address",
                    "name": "spender",
                    "type": "address"
                },
                {
                    "indexed": false,
                    "internalType": "uint256",
                    "name": "value",
                    "type": "uint256"
                }
            ],
            "name": "Approval",
            "type": "event"
        },
        {
            "anonymous": false,
            "inputs": [
                {
                    "indexed": true,
                    "internalType": "address",
                    "name": "previousOwner",
                    "type": "address"
                },
                {
                    "indexed": true,
                    "internalType": "address",
                    "name": "newOwner",
                    "type": "address"
                }
            ],
            "name": "OwnershipTransferred",
            "type": "event"
        },
        {
            "anonymous": false,
            "inputs": [
                {
                    "indexed": false,
                    "internalType": "address",
                    "name": "account",
                    "type": "address"
                }
            ],
            "name": "Paused",
            "type": "event"
        },
        {
            "anonymous": false,
            "inputs": [
                {
                    "indexed": false,
                    "internalType": "uint256",
                    "name": "id",
                    "type": "uint256"
                }
            ],
            "name": "Snapshot",
            "type": "event"
        },
        {
            "anonymous": false,
            "inputs": [
                {
                    "indexed": true,
                    "internalType": "address",
                    "name": "from",
                    "type": "address"
                },
                {
                    "indexed": true,
                    "internalType": "address",
                    "name": "to",
                    "type": "address"
                },
                {
                    "indexed": false,
                    "internalType": "uint256",
                    "name": "value",
                    "type": "uint256"
                }
            ],
            "name": "Transfer",
            "type": "event"
        },
        {
            "anonymous": false,
            "inputs": [
                {
                    "indexed": false,
                    "internalType": "address",
                    "name": "account",
                    "type": "address"
                }
            ],
            "name": "Unpaused",
            "type": "event"
        },
        {
            "inputs": [],
            "name": "DOMAIN_SEPARATOR",
            "outputs": [
                {
                    "internalType": "bytes32",
                    "name": "",
                    "type": "bytes32"
                }
            ],
            "stateMutability": "view",
            "type": "function"
        },
        {
            "inputs": [
                {
                    "internalType": "address",
                    "name": "owner",
                    "type": "address"
                },
                {
                    "internalType": "address",
                    "name": "spender",
                    "type": "address"
                }
            ],
            "name": "allowance",
            "outputs": [
                {
                    "internalType": "uint256",
                    "name": "",
                    "type": "uint256"
                }
            ],
            "stateMutability": "view",
            "type": "function"
        },
        {
            "inputs": [
                {
                    "internalType": "address",
                    "name": "spender",
                    "type": "address"
                },
                {
                    "internalType": "uint256",
                    "name": "amount",
                    "type": "uint256"
                }
            ],
            "name": "approve",
            "outputs": [
                {
                    "internalType": "bool",
                    "name": "",
                    "type": "bool"
                }
            ],
            "stateMutability": "nonpayable",
            "type": "function"
        },
        {
            "inputs": [
                {
                    "internalType": "address",
                    "name": "account",
                    "type": "address"
                }
            ],
            "name": "balanceOf",
            "outputs": [
                {
                    "internalType": "uint256",
                    "name": "",
                    "type": "uint256"
                }
            ],
            "stateMutability": "view",
            "type": "function"
        },
        {
            "inputs": [
                {
                    "internalType": "address",
                    "name": "account",
                    "type": "address"
                },
                {
                    "internalType": "uint256",
                    "name": "snapshotId",
                    "type": "uint256"
                }
            ],
            "name": "balanceOfAt",
            "outputs": [
                {
                    "internalType": "uint256",
                    "name": "",
                    "type": "uint256"
                }
            ],
            "stateMutability": "view",
            "type": "function"
        },
        {
            "inputs": [
                {
                    "internalType": "uint256",
                    "name": "amount",
                    "type": "uint256"
                }
            ],
            "name": "burn",
            "outputs": [],
            "stateMutability": "nonpayable",
            "type": "function"
        },
        {
            "inputs": [
                {
                    "internalType": "address",
                    "name": "account",
                    "type": "address"
                },
                {
                    "internalType": "uint256",
                    "name": "amount",
                    "type": "uint256"
                }
            ],
            "name": "burnFrom",
            "outputs": [],
            "stateMutability": "nonpayable",
            "type": "function"
        },
        {
            "inputs": [],
            "name": "decimals",
            "outputs": [
                {
                    "internalType": "uint8",
                    "name": "",
                    "type": "uint8"
                }
            ],
            "stateMutability": "view",
            "type": "function"
        },
        {
            "inputs": [
                {
                    "internalType": "address",
                    "name": "spender",
                    "type": "address"
                },
                {
                    "internalType": "uint256",
                    "name": "subtractedValue",
                    "type": "uint256"
                }
            ],
            "name": "decreaseAllowance",
            "outputs": [
                {
                    "internalType": "bool",
                    "name": "",
                    "type": "bool"
                }
            ],
            "stateMutability": "nonpayable",
            "type": "function"
        },
        {
            "inputs": [
                {
                    "internalType": "address",
                    "name": "account",
                    "type": "address"
                }
            ],
            "name": "earned",
            "outputs": [
                {
                    "internalType": "uint256",
                    "name": "",
                    "type": "uint256"
                }
            ],
            "stateMutability": "view",
            "type": "function"
        },
        {
            "inputs": [],
            "name": "getRewardForDuration",
            "outputs": [
                {
                    "internalType": "uint256",
                    "name": "",
                    "type": "uint256"
                }
            ],
            "stateMutability": "view",
            "type": "function"
        },
        {
            "inputs": [
                {
                    "internalType": "address",
                    "name": "spender",
                    "type": "address"
                },
                {
                    "internalType": "uint256",
                    "name": "addedValue",
                    "type": "uint256"
                }
            ],
            "name": "increaseAllowance",
            "outputs": [
                {
                    "internalType": "bool",
                    "name": "",
                    "type": "bool"
                }
            ],
            "stateMutability": "nonpayable",
            "type": "function"
        },
        {
            "inputs": [],
            "name": "lastTimeRewardApplicable",
            "outputs": [
                {
                    "internalType": "uint256",
                    "name": "",
                    "type": "uint256"
                }
            ],
            "stateMutability": "view",
            "type": "function"
        },
        {
            "inputs": [],
            "name": "lastUpdateTime",
            "outputs": [
                {
                    "internalType": "uint256",
                    "name": "",
                    "type": "uint256"
                }
            ],
            "stateMutability": "view",
            "type": "function"
        },
        {
            "inputs": [
                {
                    "internalType": "address",
                    "name": "to",
                    "type": "address"
                },
                {
                    "internalType": "uint256",
                    "name": "amount",
                    "type": "uint256"
                }
            ],
            "name": "mint",
            "outputs": [],
            "stateMutability": "nonpayable",
            "type": "function"
        },
        {
            "inputs": [],
            "name": "name",
            "outputs": [
                {
                    "internalType": "string",
                    "name": "",
                    "type": "string"
                }
            ],
            "stateMutability": "view",
            "type": "function"
        },
        {
            "inputs": [
                {
                    "internalType": "address",
                    "name": "owner",
                    "type": "address"
                }
            ],
            "name": "nonces",
            "outputs": [
                {
                    "internalType": "uint256",
                    "name": "",
                    "type": "uint256"
                }
            ],
            "stateMutability": "view",
            "type": "function"
        },
        {
            "inputs": [],
            "name": "owner",
            "outputs": [
                {
                    "internalType": "address",
                    "name": "",
                    "type": "address"
                }
            ],
            "stateMutability": "view",
            "type": "function"
        },
        {
            "inputs": [],
            "name": "pause",
            "outputs": [],
            "stateMutability": "nonpayable",
            "type": "function"
        },
        {
            "inputs": [],
            "name": "paused",
            "outputs": [
                {
                    "internalType": "bool",
                    "name": "",
                    "type": "bool"
                }
            ],
            "stateMutability": "view",
            "type": "function"
        },
        {
            "inputs": [],
            "name": "periodFinish",
            "outputs": [
                {
                    "internalType": "uint256",
                    "name": "",
                    "type": "uint256"
                }
            ],
            "stateMutability": "view",
            "type": "function"
        },
        {
            "inputs": [
                {
                    "internalType": "address",
                    "name": "owner",
                    "type": "address"
                },
                {
                    "internalType": "address",
                    "name": "spender",
                    "type": "address"
                },
                {
                    "internalType": "uint256",
                    "name": "value",
                    "type": "uint256"
                },
                {
                    "internalType": "uint256",
                    "name": "deadline",
                    "type": "uint256"
                },
                {
                    "internalType": "uint8",
                    "name": "v",
                    "type": "uint8"
                },
                {
                    "internalType": "bytes32",
                    "name": "r",
                    "type": "bytes32"
                },
                {
                    "internalType": "bytes32",
                    "name": "s",
                    "type": "bytes32"
                }
            ],
            "name": "permit",
            "outputs": [],
            "stateMutability": "nonpayable",
            "type": "function"
        },
        {
            "inputs": [],
            "name": "renounceOwnership",
            "outputs": [],
            "stateMutability": "nonpayable",
            "type": "function"
        },
        {
            "inputs": [],
            "name": "rewardPerToken",
            "outputs": [
                {
                    "internalType": "uint256",
                    "name": "",
                    "type": "uint256"
                }
            ],
            "stateMutability": "view",
            "type": "function"
        },
        {
            "inputs": [],
            "name": "rewardPerTokenStored",
            "outputs": [
                {
                    "internalType": "uint256",
                    "name": "",
                    "type": "uint256"
                }
            ],
            "stateMutability": "view",
            "type": "function"
        },
        {
            "inputs": [],
            "name": "rewardRate",
            "outputs": [
                {
                    "internalType": "uint256",
                    "name": "",
                    "type": "uint256"
                }
            ],
            "stateMutability": "view",
            "type": "function"
        },
        {
            "inputs": [
                {
                    "internalType": "address",
                    "name": "",
                    "type": "address"
                }
            ],
            "name": "rewards",
            "outputs": [
                {
                    "internalType": "uint256",
                    "name": "",
                    "type": "uint256"
                }
            ],
            "stateMutability": "view",
            "type": "function"
        },
        {
            "inputs": [],
            "name": "rewardsDuration",
            "outputs": [
                {
                    "internalType": "uint256",
                    "name": "",
                    "type": "uint256"
                }
            ],
            "stateMutability": "view",
            "type": "function"
        },
        {
            "inputs": [],
            "name": "snapshot",
            "outputs": [],
            "stateMutability": "nonpayable",
            "type": "function"
        },
        {
            "inputs": [],
            "name": "symbol",
            "outputs": [
                {
                    "internalType": "string",
                    "name": "",
                    "type": "string"
                }
            ],
            "stateMutability": "view",
            "type": "function"
        },
        {
            "inputs": [],
            "name": "totalSupply",
            "outputs": [
                {
                    "internalType": "uint256",
                    "name": "",
                    "type": "uint256"
                }
            ],
            "stateMutability": "view",
            "type": "function"
        },
        {
            "inputs": [
                {
                    "internalType": "uint256",
                    "name": "snapshotId",
                    "type": "uint256"
                }
            ],
            "name": "totalSupplyAt",
            "outputs": [
                {
                    "internalType": "uint256",
                    "name": "",
                    "type": "uint256"
                }
            ],
            "stateMutability": "view",
            "type": "function"
        },
        {
            "inputs": [
                {
                    "internalType": "address",
                    "name": "recipient",
                    "type": "address"
                },
                {
                    "internalType": "uint256",
                    "name": "amount",
                    "type": "uint256"
                }
            ],
            "name": "transfer",
            "outputs": [
                {
                    "internalType": "bool",
                    "name": "",
                    "type": "bool"
                }
            ],
            "stateMutability": "nonpayable",
            "type": "function"
        },
        {
            "inputs": [
                {
                    "internalType": "address",
                    "name": "sender",
                    "type": "address"
                },
                {
                    "internalType": "address",
                    "name": "recipient",
                    "type": "address"
                },
                {
                    "internalType": "uint256",
                    "name": "amount",
                    "type": "uint256"
                }
            ],
            "name": "transferFrom",
            "outputs": [
                {
                    "internalType": "bool",
                    "name": "",
                    "type": "bool"
                }
            ],
            "stateMutability": "nonpayable",
            "type": "function"
        },
        {
            "inputs": [
                {
                    "internalType": "address",
                    "name": "newOwner",
                    "type": "address"
                }
            ],
            "name": "transferOwnership",
            "outputs": [],
            "stateMutability": "nonpayable",
            "type": "function"
        },
        {
            "inputs": [],
            "name": "unpause",
            "outputs": [],
            "stateMutability": "nonpayable",
            "type": "function"
        },
        {
            "inputs": [
                {
                    "internalType": "address",
                    "name": "",
                    "type": "address"
                }
            ],
            "name": "userRewardPerTokenPaid",
            "outputs": [
                {
                    "internalType": "uint256",
                    "name": "",
                    "type": "uint256"
                }
            ],
            "stateMutability": "view",
            "type": "function"
        }
    ],
    "bytecode": "6101406040527f6e71edae12b1b97f4d1f60370fef10105fa2faae0126114a169c64845d6126c9610120526000600c819055600d5562093a80600e553480156200004857600080fd5b506040518060400160405280600c81526020016b21bab930ba37b92a37b5b2b760a11b81525080604051806040016040528060018152602001603160f81b8152506040518060400160405280600c81526020016b21bab930ba37b92a37b5b2b760a11b815250604051806040016040528060038152602001624d544b60e81b8152508160039080519060200190620000e2929190620005d4565b508051620000f8906004906020840190620005d4565b50506005805460ff191660121790555060006200011462000203565b600a80546001600160a01b0319166001600160a01b038316908117909155604051919250906000907f8be0079c531659141344cd1fd0a4f28419497f9722a3daafe3b4186f6b6457e0908290a350600a805460ff60a01b19169055815160208084019190912082519183019190912060c082905260e08190527f8b73c3c69bb8fe3d512ecc4cf759cc79239f7b179b0ffacaa9a75d522b39400f620001b862000207565b60a052620001c88184846200020b565b6080526101005250620001fd9350339250620001e69150506200026f565b60ff16600a0a620f4240026200027860201b60201c565b62000680565b3390565b4690565b60008383836200021a62000207565b3060405160200180868152602001858152602001848152602001838152602001826001600160a01b03168152602001955050505050506040516020818303038152906040528051906020012090509392505050565b60055460ff1690565b6001600160a01b038216620002d4576040805162461bcd60e51b815260206004820152601f60248201527f45524332303a206d696e7420746f20746865207a65726f206164647265737300604482015290519081900360640190fd5b620002e26000838362000387565b620002fe81600254620003f460201b620010c81790919060201c565b6002556001600160a01b0382166000908152602081815260409091205462000331918390620010c8620003f4821b17901c565b6001600160a01b0383166000818152602081815260408083209490945583518581529351929391927fddf252ad1be2c89b69c2b068fc378daa952ba7f163c4a11628f55a4df523b3ef9281900390910190a35050565b6200039162000456565b15620003d7576040805162461bcd60e51b815260206004820152601060248201526f14185d5cd8589b194e881c185d5cd95960821b604482015290519081900360640190fd5b620003ef8383836200046660201b620011291760201c565b505050565b6000828201838110156200044f576040805162461bcd60e51b815260206004820152601b60248201527f536166654d6174683a206164646974696f6e206f766572666c6f770000000000604482015290519081900360640190fd5b9392505050565b600a54600160a01b900460ff1690565b6200047e838383620003ef60201b62000b471760201c565b6001600160a01b038316620004a8576200049882620004d3565b620004a262000504565b620003ef565b6001600160a01b038216620004c2576200049883620004d3565b620004cd83620004d3565b620003ef825b6001600160a01b03811660009081526006602052604090206200050190620004fb8362000516565b62000535565b50565b620005146007620004fb62000591565b565b6001600160a01b0381166000908152602081905260409020545b919050565b60006200054e60096200059760201b620011811760201c565b9050806200055c846200059b565b1015620003ef578254600180820185556000858152602080822090930193909355938401805494850181558252902090910155565b60025490565b5490565b8054600090620005ae5750600062000530565b815482906000198101908110620005c157fe5b9060005260206000200154905062000530565b828054600181600116156101000203166002900490600052602060002090601f0160209004810192826200060c576000855562000657565b82601f106200062757805160ff191683800117855562000657565b8280016001018555821562000657579182015b82811115620006575782518255916020019190600101906200063a565b506200066592915062000669565b5090565b5b808211156200066557600081556001016200066a565b60805160a05160c05160e051610100516101205161211c620006ca60003980610e465250806115e15250806116235250806116025250806115885250806115b8525061211c6000f3fe608060405234801561001057600080fd5b50600436106102265760003560e01c806379cc679011610130578063981b24d0116100b8578063d505accf1161007c578063d505accf146105e4578063dd62ed3e14610635578063df136d6514610663578063ebe2b12b1461066b578063f2fde38b1461067357610226565b8063981b24d01461055f578063a457c2d71461057c578063a9059cbb146105a8578063c8f33c91146105d4578063cd3daf9d146105dc57610226565b80638456cb59116100ff5780638456cb59146104fd5780638b876347146105055780638da5cb5b1461052b57806395d89b411461054f5780639711715a1461055757610226565b806379cc67901461049b5780637b0a47ee146104c75780637ecebe00146104cf57806380faa57d146104f557610226565b8063386a9525116101b357806342966c681161018257806342966c681461041c5780634ee2cd7e146104395780635c975abb1461046557806370a082311461046d578063715018a61461049357610226565b8063386a9525146103b257806339509351146103ba5780633f4ba83a146103e657806340c10f19146103f057610226565b806318160ddd116101fa57806318160ddd146103465780631c1f78eb1461034e57806323b872dd14610356578063313ce5671461038c5780633644e515146103aa57610226565b80628cc2621461022b57806306fdde03146102635780630700037d146102e0578063095ea7b314610306575b600080fd5b6102516004803603602081101561024157600080fd5b50356001600160a01b0316610699565b60408051918252519081900360200190f35b61026b610709565b6040805160208082528351818301528351919283929083019185019080838360005b838110156102a557818101518382015260200161028d565b50505050905090810190601f1680156102d25780820380516001836020036101000a031916815260200191505b509250505060405180910390f35b610251600480360360208110156102f657600080fd5b50356001600160a01b03166107a0565b6103326004803603604081101561031c57600080fd5b506001600160a01b0381351690602001356107b2565b604080519115158252519081900360200190f35b6102516107d0565b6102516107d6565b6103326004803603606081101561036c57600080fd5b506001600160a01b038135811691602081013590911690604001356107f4565b61039461087b565b6040805160ff9092168252519081900360200190f35b610251610884565b61025161088e565b610332600480360360408110156103d057600080fd5b506001600160a01b038135169060200135610894565b6103ee6108e2565b005b6103ee6004803603604081101561040657600080fd5b506001600160a01b03813516906020013561094e565b6103ee6004803603602081101561043257600080fd5b50356109be565b6102516004803603604081101561044f57600080fd5b506001600160a01b0381351690602001356109d2565b610332610a1b565b6102516004803603602081101561048357600080fd5b50356001600160a01b0316610a2b565b6103ee610a46565b6103ee600480360360408110156104b157600080fd5b506001600160a01b038135169060200135610af2565b610251610b4c565b610251600480360360208110156104e557600080fd5b50356001600160a01b0316610b52565b610251610b73565b6103ee610b81565b6102516004803603602081101561051b57600080fd5b50356001600160a01b0316610beb565b610533610bfd565b604080516001600160a01b039092168252519081900360200190f35b61026b610c0c565b6103ee610c6d565b6102516004803603602081101561057557600080fd5b5035610cd7565b6103326004803603604081101561059257600080fd5b506001600160a01b038135169060200135610d07565b610332600480360360408110156105be57600080fd5b506001600160a01b038135169060200135610d6f565b610251610d83565b610251610d89565b6103ee600480360360e08110156105fa57600080fd5b506001600160a01b03813581169160208101359091169060408101359060608101359060ff6080820135169060a08101359060c00135610dd7565b6102516004803603604081101561064b57600080fd5b506001600160a01b0381358116916020013516610f8e565b610251610fb9565b610251610fbf565b6103ee6004803603602081101561068957600080fd5b50356001600160a01b0316610fc5565b6001600160a01b038116600090815260126020908152604080832054601190925282205461070191906106fb90670de0b6b3a7640000906106f5906106e6906106e0610d89565b90611185565b6106ef88610a2b565b906111e2565b9061123b565b906110c8565b90505b919050565b60038054604080516020601f60026000196101006001881615020190951694909404938401819004810282018101909252828152606093909290918301828280156107955780601f1061076a57610100808354040283529160200191610795565b820191906000526020600020905b81548152906001019060200180831161077857829003601f168201915b505050505090505b90565b60126020526000908152604090205481565b60006107c66107bf6112a2565b84846112a6565b5060015b92915050565b60025490565b60006107ef600e54600d546111e290919063ffffffff16565b905090565b6000610801848484611392565b6108718461080d6112a2565b61086c85604051806060016040528060288152602001611fec602891396001600160a01b038a1660009081526001602052604081209061084b6112a2565b6001600160a01b0316815260208101919091526040016000205491906114ed565b6112a6565b5060019392505050565b60055460ff1690565b60006107ef611584565b600e5481565b60006107c66108a16112a2565b8461086c85600160006108b26112a2565b6001600160a01b03908116825260208083019390935260409182016000908120918c1681529252902054906110c8565b6108ea6112a2565b6001600160a01b03166108fb610bfd565b6001600160a01b031614610944576040805162461bcd60e51b81526020600482018190526024820152600080516020612014833981519152604482015290519081900360640190fd5b61094c61164e565b565b6109566112a2565b6001600160a01b0316610967610bfd565b6001600160a01b0316146109b0576040805162461bcd60e51b81526020600482018190526024820152600080516020612014833981519152604482015290519081900360640190fd5b6109ba82826116f1565b5050565b6109cf6109c96112a2565b826117e1565b50565b6001600160a01b0382166000908152600660205260408120819081906109f99085906118dd565b9150915081610a1057610a0b85610a2b565b610a12565b805b95945050505050565b600a54600160a01b900460ff1690565b6001600160a01b031660009081526020819052604090205490565b610a4e6112a2565b6001600160a01b0316610a5f610bfd565b6001600160a01b031614610aa8576040805162461bcd60e51b81526020600482018190526024820152600080516020612014833981519152604482015290519081900360640190fd5b600a546040516000916001600160a01b0316907f8be0079c531659141344cd1fd0a4f28419497f9722a3daafe3b4186f6b6457e0908390a3600a80546001600160a01b0319169055565b6000610b298260405180606001604052806024815260200161203460249139610b2286610b1d6112a2565b610f8e565b91906114ed565b9050610b3d83610b376112a2565b836112a6565b610b4783836117e1565b505050565b600d5481565b6001600160a01b0381166000908152600b6020526040812061070190611181565b60006107ef42600c546119da565b610b896112a2565b6001600160a01b0316610b9a610bfd565b6001600160a01b031614610be3576040805162461bcd60e51b81526020600482018190526024820152600080516020612014833981519152604482015290519081900360640190fd5b61094c6119f0565b60116020526000908152604090205481565b600a546001600160a01b031690565b60048054604080516020601f60026000196101006001881615020190951694909404938401819004810282018101909252828152606093909290918301828280156107955780601f1061076a57610100808354040283529160200191610795565b610c756112a2565b6001600160a01b0316610c86610bfd565b6001600160a01b031614610ccf576040805162461bcd60e51b81526020600482018190526024820152600080516020612014833981519152604482015290519081900360640190fd5b6109cf611a79565b6000806000610ce78460076118dd565b9150915081610cfd57610cf86107d0565b610cff565b805b949350505050565b60006107c6610d146112a2565b8461086c856040518060600160405280602581526020016120c26025913960016000610d3e6112a2565b6001600160a01b03908116825260208083019390935260409182016000908120918d168152925290205491906114ed565b60006107c6610d7c6112a2565b8484611392565b600f5481565b6000610d936107d0565b610da0575060105461079d565b6107ef610dce610dae6107d0565b6106f5670de0b6b3a76400006106ef600d546106ef600f546106e0610b73565b601054906110c8565b83421115610e2c576040805162461bcd60e51b815260206004820152601d60248201527f45524332305065726d69743a206578706972656420646561646c696e65000000604482015290519081900360640190fd5b6001600160a01b0387166000908152600b602052604081207f000000000000000000000000000000000000000000000000000000000000000090899089908990610e7590611181565b8960405160200180878152602001866001600160a01b03168152602001856001600160a01b0316815260200184815260200183815260200182815260200196505050505050506040516020818303038152906040528051906020012090506000610ede82611acd565b90506000610eee82878787611b19565b9050896001600160a01b0316816001600160a01b031614610f56576040805162461bcd60e51b815260206004820152601e60248201527f45524332305065726d69743a20696e76616c6964207369676e61747572650000604482015290519081900360640190fd5b6001600160a01b038a166000908152600b60205260409020610f7790611c8e565b610f828a8a8a6112a6565b50505050505050505050565b6001600160a01b03918216600090815260016020908152604080832093909416825291909152205490565b60105481565b600c5481565b610fcd6112a2565b6001600160a01b0316610fde610bfd565b6001600160a01b031614611027576040805162461bcd60e51b81526020600482018190526024820152600080516020612014833981519152604482015290519081900360640190fd5b6001600160a01b03811661106c5760405162461bcd60e51b8152600401808060200182810382526026815260200180611f196026913960400191505060405180910390fd5b600a546040516001600160a01b038084169216907f8be0079c531659141344cd1fd0a4f28419497f9722a3daafe3b4186f6b6457e090600090a3600a80546001600160a01b0319166001600160a01b0392909216919091179055565b600082820183811015611122576040805162461bcd60e51b815260206004820152601b60248201527f536166654d6174683a206164646974696f6e206f766572666c6f770000000000604482015290519081900360640190fd5b9392505050565b611134838383610b47565b6001600160a01b0383166111585761114b82611c97565b611153611cc1565b610b47565b6001600160a01b03821661116f5761114b83611c97565b61117883611c97565b610b4782611c97565b5490565b6000828211156111dc576040805162461bcd60e51b815260206004820152601e60248201527f536166654d6174683a207375627472616374696f6e206f766572666c6f770000604482015290519081900360640190fd5b50900390565b6000826111f1575060006107ca565b828202828482816111fe57fe5b04146111225760405162461bcd60e51b8152600401808060200182810382526021815260200180611fcb6021913960400191505060405180910390fd5b6000808211611291576040805162461bcd60e51b815260206004820152601a60248201527f536166654d6174683a206469766973696f6e206279207a65726f000000000000604482015290519081900360640190fd5b81838161129a57fe5b049392505050565b3390565b6001600160a01b0383166112eb5760405162461bcd60e51b815260040180806020018281038252602481526020018061209e6024913960400191505060405180910390fd5b6001600160a01b0382166113305760405162461bcd60e51b8152600401808060200182810382526022815260200180611f3f6022913960400191505060405180910390fd5b6001600160a01b03808416600081815260016020908152604080832094871680845294825291829020859055815185815291517f8c5be1e5ebec7d5bd14f71427d1e84f3dd0314c0f7b2291e5b200ac8c7c3b9259281900390910190a3505050565b6001600160a01b0383166113d75760405162461bcd60e51b81526004018080602001828103825260258152602001806120796025913960400191505060405180910390fd5b6001600160a01b03821661141c5760405162461bcd60e51b8152600401808060200182810382526023815260200180611ed46023913960400191505060405180910390fd5b611427838383611cce565b61146481604051806060016040528060268152602001611f61602691396001600160a01b03861660009081526020819052604090205491906114ed565b6001600160a01b03808516600090815260208190526040808220939093559084168152205461149390826110c8565b6001600160a01b038084166000818152602081815260409182902094909455805185815290519193928716927fddf252ad1be2c89b69c2b068fc378daa952ba7f163c4a11628f55a4df523b3ef92918290030190a3505050565b6000818484111561157c5760405162461bcd60e51b81526004018080602001828103825283818151815260200191508051906020019080838360005b83811015611541578181015183820152602001611529565b50505050905090810190601f16801561156e5780820380516001836020036101000a031916815260200191505b509250505060405180910390fd5b505050900390565b60007f00000000000000000000000000000000000000000000000000000000000000006115af611d26565b14156115dc57507f000000000000000000000000000000000000000000000000000000000000000061079d565b6116477f00000000000000000000000000000000000000000000000000000000000000007f00000000000000000000000000000000000000000000000000000000000000007f0000000000000000000000000000000000000000000000000000000000000000611d2a565b905061079d565b611656610a1b565b61169e576040805162461bcd60e51b815260206004820152601460248201527314185d5cd8589b194e881b9bdd081c185d5cd95960621b604482015290519081900360640190fd5b600a805460ff60a01b191690557f5db9ee0a495bf2e6ff9c91a7834c1ba4fdd244a5e8aa4e537bd38aeae4b073aa6116d46112a2565b604080516001600160a01b039092168252519081900360200190a1565b6001600160a01b03821661174c576040805162461bcd60e51b815260206004820152601f60248201527f45524332303a206d696e7420746f20746865207a65726f206164647265737300604482015290519081900360640190fd5b61175860008383611cce565b60025461176590826110c8565b6002556001600160a01b03821660009081526020819052604090205461178b90826110c8565b6001600160a01b0383166000818152602081815260408083209490945583518581529351929391927fddf252ad1be2c89b69c2b068fc378daa952ba7f163c4a11628f55a4df523b3ef9281900390910190a35050565b6001600160a01b0382166118265760405162461bcd60e51b81526004018080602001828103825260218152602001806120586021913960400191505060405180910390fd5b61183282600083611cce565b61186f81604051806060016040528060228152602001611ef7602291396001600160a01b03851660009081526020819052604090205491906114ed565b6001600160a01b0383166000908152602081905260409020556002546118959082611185565b6002556040805182815290516000916001600160a01b038516917fddf252ad1be2c89b69c2b068fc378daa952ba7f163c4a11628f55a4df523b3ef9181900360200190a35050565b6000806000841161192e576040805162461bcd60e51b815260206004820152601660248201527504552433230536e617073686f743a20696420697320360541b604482015290519081900360640190fd5b6119386009611181565b84111561198c576040805162461bcd60e51b815260206004820152601d60248201527f4552433230536e617073686f743a206e6f6e6578697374656e74206964000000604482015290519081900360640190fd5b60006119988486611d8c565b84549091508114156119b15760008092509250506119d3565b60018460010182815481106119c257fe5b906000526020600020015492509250505b9250929050565b60008183106119e95781611122565b5090919050565b6119f8610a1b565b15611a3d576040805162461bcd60e51b815260206004820152601060248201526f14185d5cd8589b194e881c185d5cd95960821b604482015290519081900360640190fd5b600a805460ff60a01b1916600160a01b1790557f62e78cea01bee320cd4e420270b5ea74000d11b0c9f74754ebdbfc544b05a2586116d46112a2565b6000611a856009611c8e565b6000611a916009611181565b6040805182815290519192507f8030e83b04d87bef53480e26263266d6ca66863aa8506aca6f2559d18aa1cb67919081900360200190a1905090565b6000611ad7611584565b82604051602001808061190160f01b81525060020183815260200182815260200192505050604051602081830303815290604052805190602001209050919050565b60007f7fffffffffffffffffffffffffffffff5d576e7357a4501ddfe92f46681b20a0821115611b7a5760405162461bcd60e51b8152600401808060200182810382526022815260200180611f876022913960400191505060405180910390fd5b8360ff16601b1480611b8f57508360ff16601c145b611bca5760405162461bcd60e51b8152600401808060200182810382526022815260200180611fa96022913960400191505060405180910390fd5b600060018686868660405160008152602001604052604051808581526020018460ff1681526020018381526020018281526020019450505050506020604051602081039080840390855afa158015611c26573d6000803e3d6000fd5b5050604051601f1901519150506001600160a01b038116610a12576040805162461bcd60e51b815260206004820152601860248201527f45434453413a20696e76616c6964207369676e61747572650000000000000000604482015290519081900360640190fd5b80546001019055565b6001600160a01b03811660009081526006602052604090206109cf90611cbc83610a2b565b611e2d565b61094c6007611cbc6107d0565b611cd6610a1b565b15611d1b576040805162461bcd60e51b815260206004820152601060248201526f14185d5cd8589b194e881c185d5cd95960821b604482015290519081900360640190fd5b610b47838383611129565b4690565b6000838383611d37611d26565b3060405160200180868152602001858152602001848152602001838152602001826001600160a01b03168152602001955050505050506040516020818303038152906040528051906020012090509392505050565b8154600090611d9d575060006107ca565b82546000905b80821015611dec576000611db78383611e79565b905084868281548110611dc657fe5b90600052602060002001541115611ddf57809150611de6565b8060010192505b50611da3565b600082118015611e14575083856001840381548110611e0757fe5b9060005260206000200154145b15611e2557506000190190506107ca565b5090506107ca565b6000611e396009611181565b905080611e4584611e9e565b1015610b47578254600180820185556000858152602080822090930193909355938401805494850181558252902090910155565b60006002808306600285060181611e8c57fe5b04600283046002850401019392505050565b8054600090611eaf57506000610704565b815482906000198101908110611ec157fe5b9060005260206000200154905061070456fe45524332303a207472616e7366657220746f20746865207a65726f206164647265737345524332303a206275726e20616d6f756e7420657863656564732062616c616e63654f776e61626c653a206e6577206f776e657220697320746865207a65726f206164647265737345524332303a20617070726f766520746f20746865207a65726f206164647265737345524332303a207472616e7366657220616d6f756e7420657863656564732062616c616e636545434453413a20696e76616c6964207369676e6174757265202773272076616c756545434453413a20696e76616c6964207369676e6174757265202776272076616c7565536166654d6174683a206d756c7469706c69636174696f6e206f766572666c6f7745524332303a207472616e7366657220616d6f756e74206578636565647320616c6c6f77616e63654f776e61626c653a2063616c6c6572206973206e6f7420746865206f776e657245524332303a206275726e20616d6f756e74206578636565647320616c6c6f77616e636545524332303a206275726e2066726f6d20746865207a65726f206164647265737345524332303a207472616e736665722066726f6d20746865207a65726f206164647265737345524332303a20617070726f76652066726f6d20746865207a65726f206164647265737345524332303a2064656372656173656420616c6c6f77616e63652062656c6f77207a65726fa2646970667358221220818ee3d4ed05c2a0eed5ce396c5261b089518e3f142e45ae638db6fc30fb9d1e64736f6c63430007060033",
    "sourcePath": "c:/Users/Melton/OneDrive/Documents/Blockchain/CuratorTokens/contracts/CuratorToken.sol",
    "compiler": {
        "name": "solc",
        "version": "0.7.6+commit.7338295f"
    },
    "functionHashes": {
        "DOMAIN_SEPARATOR()": "3644e515",
        "allowance(address,address)": "dd62ed3e",
        "approve(address,uint256)": "095ea7b3",
        "balanceOf(address)": "70a08231",
        "balanceOfAt(address,uint256)": "4ee2cd7e",
        "burn(uint256)": "42966c68",
        "burnFrom(address,uint256)": "79cc6790",
        "decimals()": "313ce567",
        "decreaseAllowance(address,uint256)": "a457c2d7",
        "earned(address)": "008cc262",
        "getRewardForDuration()": "1c1f78eb",
        "increaseAllowance(address,uint256)": "39509351",
        "lastTimeRewardApplicable()": "80faa57d",
        "lastUpdateTime()": "c8f33c91",
        "mint(address,uint256)": "40c10f19",
        "name()": "06fdde03",
        "nonces(address)": "7ecebe00",
        "owner()": "8da5cb5b",
        "pause()": "8456cb59",
        "paused()": "5c975abb",
        "periodFinish()": "ebe2b12b",
        "permit(address,address,uint256,uint256,uint8,bytes32,bytes32)": "d505accf",
        "renounceOwnership()": "715018a6",
        "rewardPerToken()": "cd3daf9d",
        "rewardPerTokenStored()": "df136d65",
        "rewardRate()": "7b0a47ee",
        "rewards(address)": "0700037d",
        "rewardsDuration()": "386a9525",
        "snapshot()": "9711715a",
        "symbol()": "95d89b41",
        "totalSupply()": "18160ddd",
        "totalSupplyAt(uint256)": "981b24d0",
        "transfer(address,uint256)": "a9059cbb",
        "transferFrom(address,address,uint256)": "23b872dd",
        "transferOwnership(address)": "f2fde38b",
        "unpause()": "3f4ba83a",
        "userRewardPerTokenPaid(address)": "8b876347"
    },
    "gasEstimates": {
        "creation": {
            "codeDepositCost": "1695200",
            "executionCost": "infinite",
            "totalCost": "infinite"
        },
        "external": {
            "DOMAIN_SEPARATOR()": "infinite",
            "allowance(address,address)": "1316",
            "approve(address,uint256)": "infinite",
            "balanceOf(address)": "1256",
            "balanceOfAt(address,uint256)": "infinite",
            "burn(uint256)": "infinite",
            "burnFrom(address,uint256)": "infinite",
            "decimals()": "1125",
            "decreaseAllowance(address,uint256)": "infinite",
            "earned(address)": "infinite",
            "getRewardForDuration()": "infinite",
            "increaseAllowance(address,uint256)": "infinite",
            "lastTimeRewardApplicable()": "1196",
            "lastUpdateTime()": "1109",
            "mint(address,uint256)": "infinite",
            "name()": "infinite",
            "nonces(address)": "1276",
            "owner()": "1126",
            "pause()": "infinite",
            "paused()": "1116",
            "periodFinish()": "1108",
            "permit(address,address,uint256,uint256,uint8,bytes32,bytes32)": "infinite",
            "renounceOwnership()": "infinite",
            "rewardPerToken()": "infinite",
            "rewardPerTokenStored()": "1086",
            "rewardRate()": "1066",
            "rewards(address)": "1215",
            "rewardsDuration()": "1044",
            "snapshot()": "infinite",
            "symbol()": "infinite",
            "totalSupply()": "1044",
            "totalSupplyAt(uint256)": "infinite",
            "transfer(address,uint256)": "infinite",
            "transferFrom(address,address,uint256)": "infinite",
            "transferOwnership(address)": "infinite",
            "unpause()": "infinite",
            "userRewardPerTokenPaid(address)": "1191"
        },
        "internal": {
            "_beforeTokenTransfer(address,address,uint256)": "infinite"
        }
    }
}