{
    "contractName": "StakingRewards",
    "abi": [
        {
            "inputs": [
                {
                    "internalType": "address",
                    "name": "operator",
                    "type": "address"
                }
            ],
            "name": "authorizeOperator",
            "outputs": [],
            "stateMutability": "nonpayable",
            "type": "function"
        },
        {
            "inputs": [],
            "name": "lastUpdateTime",
            "outputs": [
                {
                    "internalType": "uint256",
                    "name": "",
                    "type": "uint256"
                }
            ],
            "stateMutability": "view",
            "type": "function"
        },
        {
            "inputs": [],
            "name": "periodFinish",
            "outputs": [
                {
                    "internalType": "uint256",
                    "name": "",
                    "type": "uint256"
                }
            ],
            "stateMutability": "view",
            "type": "function"
        },
        {
            "inputs": [],
            "name": "rewardPerTokenStored",
            "outputs": [
                {
                    "internalType": "uint256",
                    "name": "",
                    "type": "uint256"
                }
            ],
            "stateMutability": "view",
            "type": "function"
        },
        {
            "inputs": [],
            "name": "rewardRate",
            "outputs": [
                {
                    "internalType": "uint256",
                    "name": "",
                    "type": "uint256"
                }
            ],
            "stateMutability": "view",
            "type": "function"
        },
        {
            "inputs": [
                {
                    "internalType": "address",
                    "name": "",
                    "type": "address"
                }
            ],
            "name": "rewards",
            "outputs": [
                {
                    "internalType": "uint256",
                    "name": "",
                    "type": "uint256"
                }
            ],
            "stateMutability": "view",
            "type": "function"
        },
        {
            "inputs": [],
            "name": "rewardsDuration",
            "outputs": [
                {
                    "internalType": "uint256",
                    "name": "",
                    "type": "uint256"
                }
            ],
            "stateMutability": "view",
            "type": "function"
        },
        {
            "inputs": [],
            "name": "rewardsToken",
            "outputs": [
                {
                    "internalType": "contract IERC777",
                    "name": "",
                    "type": "address"
                }
            ],
            "stateMutability": "view",
            "type": "function"
        },
        {
            "inputs": [],
            "name": "stakingToken",
            "outputs": [
                {
                    "internalType": "contract IERC777",
                    "name": "",
                    "type": "address"
                }
            ],
            "stateMutability": "view",
            "type": "function"
        },
        {
            "inputs": [
                {
                    "internalType": "address",
                    "name": "",
                    "type": "address"
                }
            ],
            "name": "userRewardPerTokenPaid",
            "outputs": [
                {
                    "internalType": "uint256",
                    "name": "",
                    "type": "uint256"
                }
            ],
            "stateMutability": "view",
            "type": "function"
        }
    ],
    "bytecode": "60806040526000600355600060045562093a8060055534801561002157600080fd5b506001600055610216806100366000396000f3fe608060405234801561001057600080fd5b506004361061009e5760003560e01c8063959b8c3f11610066578063959b8c3f14610135578063c8f33c911461015d578063d1af0c7d14610165578063df136d651461016d578063ebe2b12b146101755761009e565b80630700037d146100a3578063386a9525146100db57806372f702f3146100e35780637b0a47ee146101075780638b8763471461010f575b600080fd5b6100c9600480360360208110156100b957600080fd5b50356001600160a01b031661017d565b60408051918252519081900360200190f35b6100c961018f565b6100eb610195565b604080516001600160a01b039092168252519081900360200190f35b6100c96101a4565b6100c96004803603602081101561012557600080fd5b50356001600160a01b03166101aa565b61015b6004803603602081101561014b57600080fd5b50356001600160a01b03166101bc565b005b6100c96101bf565b6100eb6101c5565b6100c96101d4565b6100c96101da565b60096020526000908152604090205481565b60055481565b6002546001600160a01b031681565b60045481565b60086020526000908152604090205481565b50565b60065481565b6001546001600160a01b031681565b60075481565b6003548156fea2646970667358221220921d4cbb5a31bdba641a8b7d768e1f0989fbc9a9887a17093925228265511e2d64736f6c63430007060033",
    "sourcePath": "c:/Users/Melton/OneDrive/Documents/Blockchain/CuratorTokens/contracts/StakingRewards.sol",
    "compiler": {
        "name": "solc",
        "version": "0.7.6+commit.7338295f"
    },
    "functionHashes": {
        "authorizeOperator(address)": "959b8c3f",
        "lastUpdateTime()": "c8f33c91",
        "periodFinish()": "ebe2b12b",
        "rewardPerTokenStored()": "df136d65",
        "rewardRate()": "7b0a47ee",
        "rewards(address)": "0700037d",
        "rewardsDuration()": "386a9525",
        "rewardsToken()": "d1af0c7d",
        "stakingToken()": "72f702f3",
        "userRewardPerTokenPaid(address)": "8b876347"
    },
    "gasEstimates": {
        "creation": {
            "codeDepositCost": "106800",
            "executionCost": "50177",
            "totalCost": "156977"
        },
        "external": {
            "authorizeOperator(address)": "206",
            "lastUpdateTime()": "1020",
            "periodFinish()": "1086",
            "rewardPerTokenStored()": "1064",
            "rewardRate()": "1065",
            "rewards(address)": "1125",
            "rewardsDuration()": "1021",
            "rewardsToken()": "1081",
            "stakingToken()": "1082",
            "userRewardPerTokenPaid(address)": "1213"
        }
    }
}