{
    "contractName": "Voting",
    "abi": [
        {
            "anonymous": false,
            "inputs": [
                {
                    "indexed": true,
                    "internalType": "address",
                    "name": "owner",
                    "type": "address"
                },
                {
                    "indexed": true,
                    "internalType": "address",
                    "name": "spender",
                    "type": "address"
                },
                {
                    "indexed": false,
                    "internalType": "uint256",
                    "name": "value",
                    "type": "uint256"
                }
            ],
            "name": "Approval",
            "type": "event"
        },
        {
            "anonymous": false,
            "inputs": [
                {
                    "indexed": false,
                    "internalType": "string",
                    "name": "contentHash",
                    "type": "string"
                },
                {
                    "indexed": false,
                    "internalType": "uint256",
                    "name": "id",
                    "type": "uint256"
                }
            ],
            "name": "NewContent",
            "type": "event"
        },
        {
            "anonymous": false,
            "inputs": [
                {
                    "indexed": true,
                    "internalType": "address",
                    "name": "previousOwner",
                    "type": "address"
                },
                {
                    "indexed": true,
                    "internalType": "address",
                    "name": "newOwner",
                    "type": "address"
                }
            ],
            "name": "OwnershipTransferred",
            "type": "event"
        },
        {
            "anonymous": false,
            "inputs": [
                {
                    "indexed": false,
                    "internalType": "address",
                    "name": "account",
                    "type": "address"
                }
            ],
            "name": "Paused",
            "type": "event"
        },
        {
            "anonymous": false,
            "inputs": [
                {
                    "indexed": false,
                    "internalType": "address",
                    "name": "token",
                    "type": "address"
                },
                {
                    "indexed": false,
                    "internalType": "uint256",
                    "name": "amount",
                    "type": "uint256"
                }
            ],
            "name": "Recovered",
            "type": "event"
        },
        {
            "anonymous": false,
            "inputs": [
                {
                    "indexed": false,
                    "internalType": "uint256",
                    "name": "reward",
                    "type": "uint256"
                }
            ],
            "name": "RewardAdded",
            "type": "event"
        },
        {
            "anonymous": false,
            "inputs": [
                {
                    "indexed": true,
                    "internalType": "address",
                    "name": "user",
                    "type": "address"
                },
                {
                    "indexed": false,
                    "internalType": "uint256",
                    "name": "reward",
                    "type": "uint256"
                }
            ],
            "name": "RewardPaid",
            "type": "event"
        },
        {
            "anonymous": false,
            "inputs": [
                {
                    "indexed": false,
                    "internalType": "uint256",
                    "name": "newDuration",
                    "type": "uint256"
                }
            ],
            "name": "RewardsDurationUpdated",
            "type": "event"
        },
        {
            "anonymous": false,
            "inputs": [
                {
                    "indexed": false,
                    "internalType": "uint256",
                    "name": "id",
                    "type": "uint256"
                }
            ],
            "name": "Snapshot",
            "type": "event"
        },
        {
            "anonymous": false,
            "inputs": [
                {
                    "indexed": true,
                    "internalType": "address",
                    "name": "user",
                    "type": "address"
                },
                {
                    "indexed": false,
                    "internalType": "uint256",
                    "name": "amount",
                    "type": "uint256"
                }
            ],
            "name": "Staked",
            "type": "event"
        },
        {
            "anonymous": false,
            "inputs": [
                {
                    "indexed": true,
                    "internalType": "address",
                    "name": "from",
                    "type": "address"
                },
                {
                    "indexed": true,
                    "internalType": "address",
                    "name": "to",
                    "type": "address"
                },
                {
                    "indexed": false,
                    "internalType": "uint256",
                    "name": "value",
                    "type": "uint256"
                }
            ],
            "name": "Transfer",
            "type": "event"
        },
        {
            "anonymous": false,
            "inputs": [
                {
                    "indexed": false,
                    "internalType": "address",
                    "name": "account",
                    "type": "address"
                }
            ],
            "name": "Unpaused",
            "type": "event"
        },
        {
            "anonymous": false,
            "inputs": [
                {
                    "indexed": true,
                    "internalType": "address",
                    "name": "user",
                    "type": "address"
                },
                {
                    "indexed": false,
                    "internalType": "uint256",
                    "name": "amount",
                    "type": "uint256"
                }
            ],
            "name": "Withdrawn",
            "type": "event"
        },
        {
            "inputs": [],
            "name": "DOMAIN_SEPARATOR",
            "outputs": [
                {
                    "internalType": "bytes32",
                    "name": "",
                    "type": "bytes32"
                }
            ],
            "stateMutability": "view",
            "type": "function"
        },
        {
            "inputs": [
                {
                    "internalType": "address",
                    "name": "owner",
                    "type": "address"
                },
                {
                    "internalType": "address",
                    "name": "spender",
                    "type": "address"
                }
            ],
            "name": "allowance",
            "outputs": [
                {
                    "internalType": "uint256",
                    "name": "",
                    "type": "uint256"
                }
            ],
            "stateMutability": "view",
            "type": "function"
        },
        {
            "inputs": [
                {
                    "internalType": "address",
                    "name": "spender",
                    "type": "address"
                },
                {
                    "internalType": "uint256",
                    "name": "amount",
                    "type": "uint256"
                }
            ],
            "name": "approve",
            "outputs": [
                {
                    "internalType": "bool",
                    "name": "",
                    "type": "bool"
                }
            ],
            "stateMutability": "nonpayable",
            "type": "function"
        },
        {
            "inputs": [
                {
                    "internalType": "address",
                    "name": "account",
                    "type": "address"
                }
            ],
            "name": "balanceOf",
            "outputs": [
                {
                    "internalType": "uint256",
                    "name": "",
                    "type": "uint256"
                }
            ],
            "stateMutability": "view",
            "type": "function"
        },
        {
            "inputs": [
                {
                    "internalType": "address",
                    "name": "account",
                    "type": "address"
                },
                {
                    "internalType": "uint256",
                    "name": "snapshotId",
                    "type": "uint256"
                }
            ],
            "name": "balanceOfAt",
            "outputs": [
                {
                    "internalType": "uint256",
                    "name": "",
                    "type": "uint256"
                }
            ],
            "stateMutability": "view",
            "type": "function"
        },
        {
            "inputs": [
                {
                    "internalType": "address",
                    "name": "account",
                    "type": "address"
                }
            ],
            "name": "balanceStakedOf",
            "outputs": [
                {
                    "internalType": "uint256",
                    "name": "",
                    "type": "uint256"
                }
            ],
            "stateMutability": "view",
            "type": "function"
        },
        {
            "inputs": [
                {
                    "internalType": "uint256",
                    "name": "amount",
                    "type": "uint256"
                }
            ],
            "name": "burn",
            "outputs": [],
            "stateMutability": "nonpayable",
            "type": "function"
        },
        {
            "inputs": [
                {
                    "internalType": "address",
                    "name": "account",
                    "type": "address"
                },
                {
                    "internalType": "uint256",
                    "name": "amount",
                    "type": "uint256"
                }
            ],
            "name": "burnFrom",
            "outputs": [],
            "stateMutability": "nonpayable",
            "type": "function"
        },
        {
            "inputs": [
                {
                    "internalType": "uint256",
                    "name": "",
                    "type": "uint256"
                }
            ],
            "name": "content",
            "outputs": [
                {
                    "internalType": "uint256",
                    "name": "totalVotes",
                    "type": "uint256"
                }
            ],
            "stateMutability": "view",
            "type": "function"
        },
        {
            "inputs": [
                {
                    "internalType": "string",
                    "name": "",
                    "type": "string"
                }
            ],
            "name": "contentIdToContent",
            "outputs": [
                {
                    "internalType": "uint256",
                    "name": "totalVotes",
                    "type": "uint256"
                }
            ],
            "stateMutability": "view",
            "type": "function"
        },
        {
            "inputs": [],
            "name": "decimals",
            "outputs": [
                {
                    "internalType": "uint8",
                    "name": "",
                    "type": "uint8"
                }
            ],
            "stateMutability": "view",
            "type": "function"
        },
        {
            "inputs": [
                {
                    "internalType": "address",
                    "name": "spender",
                    "type": "address"
                },
                {
                    "internalType": "uint256",
                    "name": "subtractedValue",
                    "type": "uint256"
                }
            ],
            "name": "decreaseAllowance",
            "outputs": [
                {
                    "internalType": "bool",
                    "name": "",
                    "type": "bool"
                }
            ],
            "stateMutability": "nonpayable",
            "type": "function"
        },
        {
            "inputs": [
                {
                    "internalType": "address",
                    "name": "account",
                    "type": "address"
                }
            ],
            "name": "earned",
            "outputs": [
                {
                    "internalType": "uint256",
                    "name": "",
                    "type": "uint256"
                }
            ],
            "stateMutability": "view",
            "type": "function"
        },
        {
            "inputs": [],
            "name": "exit",
            "outputs": [],
            "stateMutability": "nonpayable",
            "type": "function"
        },
        {
            "inputs": [],
            "name": "getReward",
            "outputs": [],
            "stateMutability": "nonpayable",
            "type": "function"
        },
        {
            "inputs": [],
            "name": "getRewardForDuration",
            "outputs": [
                {
                    "internalType": "uint256",
                    "name": "",
                    "type": "uint256"
                }
            ],
            "stateMutability": "view",
            "type": "function"
        },
        {
            "inputs": [
                {
                    "internalType": "address",
                    "name": "spender",
                    "type": "address"
                },
                {
                    "internalType": "uint256",
                    "name": "addedValue",
                    "type": "uint256"
                }
            ],
            "name": "increaseAllowance",
            "outputs": [
                {
                    "internalType": "bool",
                    "name": "",
                    "type": "bool"
                }
            ],
            "stateMutability": "nonpayable",
            "type": "function"
        },
        {
            "inputs": [],
            "name": "lastTimeRewardApplicable",
            "outputs": [
                {
                    "internalType": "uint256",
                    "name": "",
                    "type": "uint256"
                }
            ],
            "stateMutability": "view",
            "type": "function"
        },
        {
            "inputs": [],
            "name": "lastUpdateTime",
            "outputs": [
                {
                    "internalType": "uint256",
                    "name": "",
                    "type": "uint256"
                }
            ],
            "stateMutability": "view",
            "type": "function"
        },
        {
            "inputs": [
                {
                    "internalType": "address",
                    "name": "to",
                    "type": "address"
                },
                {
                    "internalType": "uint256",
                    "name": "amount",
                    "type": "uint256"
                }
            ],
            "name": "mint",
            "outputs": [],
            "stateMutability": "nonpayable",
            "type": "function"
        },
        {
            "inputs": [],
            "name": "name",
            "outputs": [
                {
                    "internalType": "string",
                    "name": "",
                    "type": "string"
                }
            ],
            "stateMutability": "view",
            "type": "function"
        },
        {
            "inputs": [
                {
                    "internalType": "address",
                    "name": "owner",
                    "type": "address"
                }
            ],
            "name": "nonces",
            "outputs": [
                {
                    "internalType": "uint256",
                    "name": "",
                    "type": "uint256"
                }
            ],
            "stateMutability": "view",
            "type": "function"
        },
        {
            "inputs": [
                {
                    "internalType": "uint256",
                    "name": "reward",
                    "type": "uint256"
                }
            ],
            "name": "notifyRewardAmount",
            "outputs": [],
            "stateMutability": "nonpayable",
            "type": "function"
        },
        {
            "inputs": [],
            "name": "owner",
            "outputs": [
                {
                    "internalType": "address",
                    "name": "",
                    "type": "address"
                }
            ],
            "stateMutability": "view",
            "type": "function"
        },
        {
            "inputs": [],
            "name": "pause",
            "outputs": [],
            "stateMutability": "nonpayable",
            "type": "function"
        },
        {
            "inputs": [],
            "name": "paused",
            "outputs": [
                {
                    "internalType": "bool",
                    "name": "",
                    "type": "bool"
                }
            ],
            "stateMutability": "view",
            "type": "function"
        },
        {
            "inputs": [],
            "name": "periodFinish",
            "outputs": [
                {
                    "internalType": "uint256",
                    "name": "",
                    "type": "uint256"
                }
            ],
            "stateMutability": "view",
            "type": "function"
        },
        {
            "inputs": [
                {
                    "internalType": "address",
                    "name": "owner",
                    "type": "address"
                },
                {
                    "internalType": "address",
                    "name": "spender",
                    "type": "address"
                },
                {
                    "internalType": "uint256",
                    "name": "value",
                    "type": "uint256"
                },
                {
                    "internalType": "uint256",
                    "name": "deadline",
                    "type": "uint256"
                },
                {
                    "internalType": "uint8",
                    "name": "v",
                    "type": "uint8"
                },
                {
                    "internalType": "bytes32",
                    "name": "r",
                    "type": "bytes32"
                },
                {
                    "internalType": "bytes32",
                    "name": "s",
                    "type": "bytes32"
                }
            ],
            "name": "permit",
            "outputs": [],
            "stateMutability": "nonpayable",
            "type": "function"
        },
        {
            "inputs": [
                {
                    "internalType": "address",
                    "name": "tokenAddress",
                    "type": "address"
                },
                {
                    "internalType": "uint256",
                    "name": "tokenAmount",
                    "type": "uint256"
                }
            ],
            "name": "recoverERC20",
            "outputs": [],
            "stateMutability": "nonpayable",
            "type": "function"
        },
        {
            "inputs": [],
            "name": "renounceOwnership",
            "outputs": [],
            "stateMutability": "nonpayable",
            "type": "function"
        },
        {
            "inputs": [],
            "name": "rewardPerToken",
            "outputs": [
                {
                    "internalType": "uint256",
                    "name": "",
                    "type": "uint256"
                }
            ],
            "stateMutability": "view",
            "type": "function"
        },
        {
            "inputs": [],
            "name": "rewardPerTokenStored",
            "outputs": [
                {
                    "internalType": "uint256",
                    "name": "",
                    "type": "uint256"
                }
            ],
            "stateMutability": "view",
            "type": "function"
        },
        {
            "inputs": [],
            "name": "rewardRate",
            "outputs": [
                {
                    "internalType": "uint256",
                    "name": "",
                    "type": "uint256"
                }
            ],
            "stateMutability": "view",
            "type": "function"
        },
        {
            "inputs": [
                {
                    "internalType": "address",
                    "name": "",
                    "type": "address"
                }
            ],
            "name": "rewards",
            "outputs": [
                {
                    "internalType": "uint256",
                    "name": "",
                    "type": "uint256"
                }
            ],
            "stateMutability": "view",
            "type": "function"
        },
        {
            "inputs": [],
            "name": "rewardsDuration",
            "outputs": [
                {
                    "internalType": "uint256",
                    "name": "",
                    "type": "uint256"
                }
            ],
            "stateMutability": "view",
            "type": "function"
        },
        {
            "inputs": [
                {
                    "internalType": "uint256",
                    "name": "_rewardsDuration",
                    "type": "uint256"
                }
            ],
            "name": "setRewardsDuration",
            "outputs": [],
            "stateMutability": "nonpayable",
            "type": "function"
        },
        {
            "inputs": [],
            "name": "snapshot",
            "outputs": [],
            "stateMutability": "nonpayable",
            "type": "function"
        },
        {
            "inputs": [
                {
                    "internalType": "uint256",
                    "name": "amount",
                    "type": "uint256"
                }
            ],
            "name": "stake",
            "outputs": [],
            "stateMutability": "nonpayable",
            "type": "function"
        },
        {
            "inputs": [],
            "name": "symbol",
            "outputs": [
                {
                    "internalType": "string",
                    "name": "",
                    "type": "string"
                }
            ],
            "stateMutability": "view",
            "type": "function"
        },
        {
            "inputs": [],
            "name": "totalSupply",
            "outputs": [
                {
                    "internalType": "uint256",
                    "name": "",
                    "type": "uint256"
                }
            ],
            "stateMutability": "view",
            "type": "function"
        },
        {
            "inputs": [
                {
                    "internalType": "uint256",
                    "name": "snapshotId",
                    "type": "uint256"
                }
            ],
            "name": "totalSupplyAt",
            "outputs": [
                {
                    "internalType": "uint256",
                    "name": "",
                    "type": "uint256"
                }
            ],
            "stateMutability": "view",
            "type": "function"
        },
        {
            "inputs": [],
            "name": "totalSupplyStaked",
            "outputs": [
                {
                    "internalType": "uint256",
                    "name": "",
                    "type": "uint256"
                }
            ],
            "stateMutability": "view",
            "type": "function"
        },
        {
            "inputs": [
                {
                    "internalType": "address",
                    "name": "recipient",
                    "type": "address"
                },
                {
                    "internalType": "uint256",
                    "name": "amount",
                    "type": "uint256"
                }
            ],
            "name": "transfer",
            "outputs": [
                {
                    "internalType": "bool",
                    "name": "",
                    "type": "bool"
                }
            ],
            "stateMutability": "nonpayable",
            "type": "function"
        },
        {
            "inputs": [
                {
                    "internalType": "address",
                    "name": "sender",
                    "type": "address"
                },
                {
                    "internalType": "address",
                    "name": "recipient",
                    "type": "address"
                },
                {
                    "internalType": "uint256",
                    "name": "amount",
                    "type": "uint256"
                }
            ],
            "name": "transferFrom",
            "outputs": [
                {
                    "internalType": "bool",
                    "name": "",
                    "type": "bool"
                }
            ],
            "stateMutability": "nonpayable",
            "type": "function"
        },
        {
            "inputs": [
                {
                    "internalType": "address",
                    "name": "newOwner",
                    "type": "address"
                }
            ],
            "name": "transferOwnership",
            "outputs": [],
            "stateMutability": "nonpayable",
            "type": "function"
        },
        {
            "inputs": [],
            "name": "unpause",
            "outputs": [],
            "stateMutability": "nonpayable",
            "type": "function"
        },
        {
            "inputs": [
                {
                    "internalType": "uint256",
                    "name": "timestamp",
                    "type": "uint256"
                }
            ],
            "name": "updatePeriodFinish",
            "outputs": [],
            "stateMutability": "nonpayable",
            "type": "function"
        },
        {
            "inputs": [
                {
                    "internalType": "address",
                    "name": "",
                    "type": "address"
                }
            ],
            "name": "userRewardPerTokenPaid",
            "outputs": [
                {
                    "internalType": "uint256",
                    "name": "",
                    "type": "uint256"
                }
            ],
            "stateMutability": "view",
            "type": "function"
        },
        {
            "inputs": [
                {
                    "internalType": "string",
                    "name": "_con",
                    "type": "string"
                },
                {
                    "internalType": "uint256",
                    "name": "_index",
                    "type": "uint256"
                },
                {
                    "internalType": "uint256",
                    "name": "_amount",
                    "type": "uint256"
                }
            ],
            "name": "voteCaption",
            "outputs": [],
            "stateMutability": "view",
            "type": "function"
        },
        {
            "inputs": [
                {
                    "internalType": "string",
                    "name": "_con",
                    "type": "string"
                },
                {
                    "internalType": "uint256",
                    "name": "_amount",
                    "type": "uint256"
                }
            ],
            "name": "voteContent",
            "outputs": [],
            "stateMutability": "view",
            "type": "function"
        },
        {
            "inputs": [
                {
                    "internalType": "uint256",
                    "name": "amount",
                    "type": "uint256"
                }
            ],
            "name": "withdraw",
            "outputs": [],
            "stateMutability": "nonpayable",
            "type": "function"
        }
    ],
    "bytecode": "6101406040527f6e71edae12b1b97f4d1f60370fef10105fa2faae0126114a169c64845d6126c9610120526000600f81905560105562093a806011553480156200004857600080fd5b506040518060400160405280600c81526020016b21bab930ba37b92a37b5b2b760a11b81525080604051806040016040528060018152602001603160f81b8152506040518060400160405280600c81526020016b21bab930ba37b92a37b5b2b760a11b815250604051806040016040528060038152602001624d544b60e81b8152508160039080519060200190620000e2929190620005d8565b508051620000f8906004906020840190620005d8565b50506005805460ff191660121790555060006200011462000207565b600a80546001600160a01b0319166001600160a01b038316908117909155604051919250906000907f8be0079c531659141344cd1fd0a4f28419497f9722a3daafe3b4186f6b6457e0908290a350600a805460ff60a01b19169055815160208084019190912082519183019190912060c082905260e08190527f8b73c3c69bb8fe3d512ecc4cf759cc79239f7b179b0ffacaa9a75d522b39400f620001b86200020b565b60a052620001c88184846200020f565b6080526101005250506001600c5550620002019150339050620001ea62000273565b60ff16600a0a620f4240026200027c60201b60201c565b62000684565b3390565b4690565b60008383836200021e6200020b565b3060405160200180868152602001858152602001848152602001838152602001826001600160a01b03168152602001955050505050506040516020818303038152906040528051906020012090509392505050565b60055460ff1690565b6001600160a01b038216620002d8576040805162461bcd60e51b815260206004820152601f60248201527f45524332303a206d696e7420746f20746865207a65726f206164647265737300604482015290519081900360640190fd5b620002e6600083836200038b565b6200030281600254620003f860201b620021191790919060201c565b6002556001600160a01b038216600090815260208181526040909120546200033591839062002119620003f8821b17901c565b6001600160a01b0383166000818152602081815260408083209490945583518581529351929391927fddf252ad1be2c89b69c2b068fc378daa952ba7f163c4a11628f55a4df523b3ef9281900390910190a35050565b620003956200045a565b15620003db576040805162461bcd60e51b815260206004820152601060248201526f14185d5cd8589b194e881c185d5cd95960821b604482015290519081900360640190fd5b620003f38383836200046a60201b6200217a1760201c565b505050565b60008282018381101562000453576040805162461bcd60e51b815260206004820152601b60248201527f536166654d6174683a206164646974696f6e206f766572666c6f770000000000604482015290519081900360640190fd5b9392505050565b600a54600160a01b900460ff1690565b62000482838383620003f360201b6200166e1760201c565b6001600160a01b038316620004ac576200049c82620004d7565b620004a662000508565b620003f3565b6001600160a01b038216620004c6576200049c83620004d7565b620004d183620004d7565b620003f3825b6001600160a01b03811660009081526006602052604090206200050590620004ff836200051a565b62000539565b50565b620005186007620004ff62000595565b565b6001600160a01b0381166000908152602081905260409020545b919050565b60006200055260096200059b60201b620021d21760201c565b90508062000560846200059f565b1015620003f3578254600180820185556000858152602080822090930193909355938401805494850181558252902090910155565b60025490565b5490565b8054600090620005b25750600062000534565b815482906000198101908110620005c557fe5b9060005260206000200154905062000534565b828054600181600116156101000203166002900490600052602060002090601f0160209004810192826200061057600085556200065b565b82601f106200062b57805160ff19168380011785556200065b565b828001600101855582156200065b579182015b828111156200065b5782518255916020019190600101906200063e565b50620006699291506200066d565b5090565b5b808211156200066957600081556001016200066e565b60805160a05160c05160e05161010051610120516131e6620006ce60003980611dd35250806126325250806126745250806126535250806125d952508061260952506131e66000f3fe608060405234801561001057600080fd5b50600436106102f05760003560e01c806379cc67901161019d578063a9059cbb116100e9578063d505accf116100a2578063e2863f3d1161007c578063e2863f3d14610996578063e9fad8ee14610a3e578063ebe2b12b14610a46578063f2fde38b14610a4e576102f0565b8063d505accf1461090f578063dd62ed3e14610960578063df136d651461098e576102f0565b8063a9059cbb14610873578063baa0b8061461089f578063bf9c89bb146108bc578063c8f33c91146108e2578063cc1a378f146108ea578063cd3daf9d14610907576102f0565b80638b876347116101565780639711715a116101305780639711715a14610805578063981b24d01461080d578063a457c2d71461082a578063a694fc3a14610856576102f0565b80638b876347146107b35780638da5cb5b146107d957806395d89b41146107fd576102f0565b806379cc67901461071d5780637b0a47ee146107495780637ecebe001461075157806380faa57d146107775780638456cb591461077f5780638980f11f14610787576102f0565b8063395093511161025c57806345fbabf6116102155780635c975abb116101ef5780635c975abb146106df578063631b8ad3146106e757806370a08231146106ef578063715018a614610715576102f0565b806345fbabf6146105eb5780634ee2cd7e14610696578063556f6e6b146106c2576102f0565b806339509351146105495780633c6b16ab146105755780633d18b912146105925780633f4ba83a1461059a57806340c10f19146105a257806342966c68146105ce576102f0565b80631c1f78eb116102ae5780631c1f78eb146104be57806323b872dd146104c65780632e1a7d4d146104fc578063313ce5671461051b5780633644e51514610539578063386a952514610541576102f0565b80628cc262146102f557806306fdde031461032d5780630700037d146103aa578063095ea7b3146103d057806318160ddd1461041057806319c90e5f14610418575b600080fd5b61031b6004803603602081101561030b57600080fd5b50356001600160a01b0316610a74565b60408051918252519081900360200190f35b610335610af4565b6040805160208082528351818301528351919283929083019185019080838360005b8381101561036f578181015183820152602001610357565b50505050905090810190601f16801561039c5780820380516001836020036101000a031916815260200191505b509250505060405180910390f35b61031b600480360360208110156103c057600080fd5b50356001600160a01b0316610b8b565b6103fc600480360360408110156103e657600080fd5b506001600160a01b038135169060200135610b9d565b604080519115158252519081900360200190f35b61031b610bbb565b61031b6004803603602081101561042e57600080fd5b81019060208101813564010000000081111561044957600080fd5b82018360208201111561045b57600080fd5b8035906020019184600183028401116401000000008311171561047d57600080fd5b91908080601f016020809104026020016040519081016040528093929190818152602001838380828437600092019190915250929550610bc1945050505050565b61031b610bde565b6103fc600480360360608110156104dc57600080fd5b506001600160a01b03813581169160208101359091169060400135610bfc565b6105196004803603602081101561051257600080fd5b5035610c83565b005b610523610e7e565b6040805160ff9092168252519081900360200190f35b61031b610e87565b61031b610e91565b6103fc6004803603604081101561055f57600080fd5b506001600160a01b038135169060200135610e97565b6105196004803603602081101561058b57600080fd5b5035610ee5565b6105196110cf565b61051961126e565b610519600480360360408110156105b857600080fd5b506001600160a01b0381351690602001356112da565b610519600480360360208110156105e457600080fd5b503561134a565b6105196004803603606081101561060157600080fd5b81019060208101813564010000000081111561061c57600080fd5b82018360208201111561062e57600080fd5b8035906020019184600183028401116401000000008311171561065057600080fd5b91908080601f016020809104026020016040519081016040528093929190818152602001838380828437600092019190915250929550508235935050506020013561135e565b61031b600480360360408110156106ac57600080fd5b506001600160a01b03813516906020013561142f565b610519600480360360208110156106d857600080fd5b5035611478565b6103fc61153c565b61031b61154c565b61031b6004803603602081101561070557600080fd5b50356001600160a01b0316611552565b61051961156d565b6105196004803603604081101561073357600080fd5b506001600160a01b038135169060200135611619565b61031b611673565b61031b6004803603602081101561076757600080fd5b50356001600160a01b0316611679565b61031b61169a565b6105196116a8565b6105196004803603604081101561079d57600080fd5b506001600160a01b038135169060200135611712565b61031b600480360360208110156107c957600080fd5b50356001600160a01b0316611893565b6107e16118a5565b604080516001600160a01b039092168252519081900360200190f35b6103356118b4565b610519611915565b61031b6004803603602081101561082357600080fd5b503561197f565b6103fc6004803603604081101561084057600080fd5b506001600160a01b0381351690602001356119af565b6105196004803603602081101561086c57600080fd5b5035611a17565b6103fc6004803603604081101561088957600080fd5b506001600160a01b038135169060200135611bde565b61031b600480360360208110156108b557600080fd5b5035611bf2565b61031b600480360360208110156108d257600080fd5b50356001600160a01b0316611c18565b61031b611c33565b6105196004803603602081101561090057600080fd5b5035611c39565b61031b611d16565b610519600480360360e081101561092557600080fd5b506001600160a01b03813581169160208101359091169060408101359060608101359060ff6080820135169060a08101359060c00135611d64565b61031b6004803603604081101561097657600080fd5b506001600160a01b0381358116916020013516611f1b565b61031b611f46565b610519600480360360408110156109ac57600080fd5b8101906020810181356401000000008111156109c757600080fd5b8201836020820111156109d957600080fd5b803590602001918460018302840111640100000000831117156109fb57600080fd5b91908080601f0160208091040260200160405190810160405280939291908181526020018383808284376000920191909152509295505091359250611f4c915050565b610519611fef565b61031b612010565b61051960048036036020811015610a6457600080fd5b50356001600160a01b0316612016565b6001600160a01b0381166000908152601560209081526040808320546014909252822054610aec9190610ae690670de0b6b3a764000090610ae090610ac190610abb611d16565b906121d6565b6001600160a01b03881660009081526017602052604090205490612233565b9061228c565b90612119565b90505b919050565b60038054604080516020601f6002600019610100600188161502019095169490940493840181900481028201810190925282815260609390929091830182828015610b805780601f10610b5557610100808354040283529160200191610b80565b820191906000526020600020905b815481529060010190602001808311610b6357829003601f168201915b505050505090505b90565b60156020526000908152604090205481565b6000610bb1610baa6122f3565b84846122f7565b5060015b92915050565b60025490565b805160208183018101805160188252928201919093012091525481565b6000610bf760115460105461223390919063ffffffff16565b905090565b6000610c098484846123e3565b610c7984610c156122f3565b610c7485604051806060016040528060288152602001613095602891396001600160a01b038a16600090815260016020526040812090610c536122f3565b6001600160a01b03168152602081019190915260400160002054919061253e565b6122f7565b5060019392505050565b6002600c541415610cdb576040805162461bcd60e51b815260206004820152601f60248201527f5265656e7472616e637947756172643a207265656e7472616e742063616c6c00604482015290519081900360640190fd5b6002600c5533610ce9611d16565b601355610cf461169a565b6012556001600160a01b03811615610d3b57610d0f81610a74565b6001600160a01b0382166000908152601560209081526040808320939093556013546014909152919020555b60008211610d84576040805162461bcd60e51b8152602060048201526011602482015270043616e6e6f74207769746864726177203607c1b604482015290519081900360640190fd5b601654610d9190836121d6565b60165533600090815260176020526040902054610dae90836121d6565b33600081815260176020908152604080832094909455600d54845163a9059cbb60e01b815260048101949094526024840187905293516001600160a01b039094169363a9059cbb93604480820194918390030190829087803b158015610e1357600080fd5b505af1158015610e27573d6000803e3d6000fd5b505050506040513d6020811015610e3d57600080fd5b505060408051838152905133917f7084f5476618d8e60b11ef0d7d3f06914655adb8793e28ff7f018d4c76d505d5919081900360200190a250506001600c55565b60055460ff1690565b6000610bf76125d5565b60115481565b6000610bb1610ea46122f3565b84610c748560016000610eb56122f3565b6001600160a01b03908116825260208083019390935260409182016000908120918c168152925290205490612119565b6000610eef611d16565b601355610efa61169a565b6012556001600160a01b03811615610f4157610f1581610a74565b6001600160a01b0382166000908152601560209081526040808320939093556013546014909152919020555b600f544210610f6057601154610f5890839061228c565b601055610fa3565b600f54600090610f7090426121d6565b90506000610f896010548361223390919063ffffffff16565b601154909150610f9d90610ae08684612119565b60105550505b600e54604080516370a0823160e01b815230600482015290516000926001600160a01b0316916370a08231916024808301926020929190829003018186803b158015610fee57600080fd5b505afa158015611002573d6000803e3d6000fd5b505050506040513d602081101561101857600080fd5b505160115490915061102b90829061228c565b6010541115611081576040805162461bcd60e51b815260206004820152601860248201527f50726f76696465642072657761726420746f6f20686967680000000000000000604482015290519081900360640190fd5b4260128190556011546110949190612119565b600f556040805184815290517fde88a922e0d3b88b24e9623efeb464919c6bf9f66857a65e2bfcf2ce87a9433d9181900360200190a1505050565b6002600c541415611127576040805162461bcd60e51b815260206004820152601f60248201527f5265656e7472616e637947756172643a207265656e7472616e742063616c6c00604482015290519081900360640190fd5b6002600c5533611135611d16565b60135561114061169a565b6012556001600160a01b038116156111875761115b81610a74565b6001600160a01b0382166000908152601560209081526040808320939093556013546014909152919020555b33600090815260156020526040902054801561126557336000818152601560209081526040808320839055600e54815163a9059cbb60e01b815260048101959095526024850186905290516001600160a01b039091169363a9059cbb9360448083019493928390030190829087803b15801561120257600080fd5b505af1158015611216573d6000803e3d6000fd5b505050506040513d602081101561122c57600080fd5b505060408051828152905133917fe2403640ba68fed3a2f88b7557551d1993f84b99bb10ff833f0cf8db0c5e0486919081900360200190a25b50506001600c55565b6112766122f3565b6001600160a01b03166112876118a5565b6001600160a01b0316146112d0576040805162461bcd60e51b815260206004820181905260248201526000805160206130bd833981519152604482015290519081900360640190fd5b6112d861269f565b565b6112e26122f3565b6001600160a01b03166112f36118a5565b6001600160a01b03161461133c576040805162461bcd60e51b815260206004820181905260248201526000805160206130bd833981519152604482015290519081900360640190fd5b6113468282612742565b5050565b61135b6113556122f3565b82612832565b50565b3360009081526015602052604090205481111561137a57600080fd5b3360009081526015602052604090205461139490826121d6565b50611429816018856040518082805190602001908083835b602083106113cb5780518252601f1990920191602091820191016113ac565b51815160209384036101000a600019018019909216911617905292019485525060405193849003019092206001018054909250869150811061140957fe5b90600052602060002090600202016001015461211990919063ffffffff16565b50505050565b6001600160a01b03821660009081526006602052604081208190819061145690859061292e565b915091508161146d5761146885611552565b61146f565b805b95945050505050565b6114806122f3565b6001600160a01b03166114916118a5565b6001600160a01b0316146114da576040805162461bcd60e51b815260206004820181905260248201526000805160206130bd833981519152604482015290519081900360640190fd5b60006114e4611d16565b6013556114ef61169a565b6012556001600160a01b038116156115365761150a81610a74565b6001600160a01b0382166000908152601560209081526040808320939093556013546014909152919020555b50600f55565b600a54600160a01b900460ff1690565b60165490565b6001600160a01b031660009081526020819052604090205490565b6115756122f3565b6001600160a01b03166115866118a5565b6001600160a01b0316146115cf576040805162461bcd60e51b815260206004820181905260248201526000805160206130bd833981519152604482015290519081900360640190fd5b600a546040516000916001600160a01b0316907f8be0079c531659141344cd1fd0a4f28419497f9722a3daafe3b4186f6b6457e0908390a3600a80546001600160a01b0319169055565b6000611650826040518060600160405280602481526020016130dd60249139611649866116446122f3565b611f1b565b919061253e565b90506116648361165e6122f3565b836122f7565b61166e8383612832565b505050565b60105481565b6001600160a01b0381166000908152600b60205260408120610aec906121d2565b6000610bf742600f54612a2b565b6116b06122f3565b6001600160a01b03166116c16118a5565b6001600160a01b03161461170a576040805162461bcd60e51b815260206004820181905260248201526000805160206130bd833981519152604482015290519081900360640190fd5b6112d8612a41565b61171a6122f3565b6001600160a01b031661172b6118a5565b6001600160a01b031614611774576040805162461bcd60e51b815260206004820181905260248201526000805160206130bd833981519152604482015290519081900360640190fd5b600d546001600160a01b03838116911614156117c15760405162461bcd60e51b815260040180806020018281038252602181526020018061316b6021913960400191505060405180910390fd5b816001600160a01b031663a9059cbb6117d86118a5565b836040518363ffffffff1660e01b815260040180836001600160a01b0316815260200182815260200192505050602060405180830381600087803b15801561181f57600080fd5b505af1158015611833573d6000803e3d6000fd5b505050506040513d602081101561184957600080fd5b5050604080516001600160a01b03841681526020810183905281517f8c1256b8896378cd5044f80c202f9772b9d77dc85c8a6eb51967210b09bfaa28929181900390910190a15050565b60146020526000908152604090205481565b600a546001600160a01b031690565b60048054604080516020601f6002600019610100600188161502019095169490940493840181900481028201810190925282815260609390929091830182828015610b805780601f10610b5557610100808354040283529160200191610b80565b61191d6122f3565b6001600160a01b031661192e6118a5565b6001600160a01b031614611977576040805162461bcd60e51b815260206004820181905260248201526000805160206130bd833981519152604482015290519081900360640190fd5b61135b612aca565b600080600061198f84600761292e565b91509150816119a5576119a0610bbb565b6119a7565b805b949350505050565b6000610bb16119bc6122f3565b84610c748560405180606001604052806025815260200161318c60259139600160006119e66122f3565b6001600160a01b03908116825260208083019390935260409182016000908120918d1681529252902054919061253e565b6002600c541415611a6f576040805162461bcd60e51b815260206004820152601f60248201527f5265656e7472616e637947756172643a207265656e7472616e742063616c6c00604482015290519081900360640190fd5b6002600c55611a7c61153c565b15611ac1576040805162461bcd60e51b815260206004820152601060248201526f14185d5cd8589b194e881c185d5cd95960821b604482015290519081900360640190fd5b33611aca611d16565b601355611ad561169a565b6012556001600160a01b03811615611b1c57611af081610a74565b6001600160a01b0382166000908152601560209081526040808320939093556013546014909152919020555b60008211611b62576040805162461bcd60e51b815260206004820152600e60248201526d043616e6e6f74207374616b6520360941b604482015290519081900360640190fd5b601654611b6f9083612119565b60165533600090815260176020526040902054611b8c9083612119565b33600081815260176020908152604091829020939093558051858152905191927f9e71bc8eea02a63969f509818f2dafb9254532904319f9dbda79b67bd34a5f3d92918290030190a250506001600c55565b6000610bb1611beb6122f3565b84846123e3565b60198181548110611c0257600080fd5b6000918252602090912060029091020154905081565b6001600160a01b031660009081526017602052604090205490565b60125481565b611c416122f3565b6001600160a01b0316611c526118a5565b6001600160a01b031614611c9b576040805162461bcd60e51b815260206004820181905260248201526000805160206130bd833981519152604482015290519081900360640190fd5b600f544211611cdb5760405162461bcd60e51b8152600401808060200182810382526058815260200180612f486058913960600191505060405180910390fd5b60118190556040805182815290517ffb46ca5a5e06d4540d6387b930a7c978bce0db5f449ec6b3f5d07c6e1d44f2d39181900360200190a150565b600060165460001415611d2c5750601354610b88565b610bf7611d5b601654610ae0670de0b6b3a7640000611d55601054611d55601254610abb61169a565b90612233565b60135490612119565b83421115611db9576040805162461bcd60e51b815260206004820152601d60248201527f45524332305065726d69743a206578706972656420646561646c696e65000000604482015290519081900360640190fd5b6001600160a01b0387166000908152600b602052604081207f000000000000000000000000000000000000000000000000000000000000000090899089908990611e02906121d2565b8960405160200180878152602001866001600160a01b03168152602001856001600160a01b0316815260200184815260200183815260200182815260200196505050505050506040516020818303038152906040528051906020012090506000611e6b82612b1e565b90506000611e7b82878787612b6a565b9050896001600160a01b0316816001600160a01b031614611ee3576040805162461bcd60e51b815260206004820152601e60248201527f45524332305065726d69743a20696e76616c6964207369676e61747572650000604482015290519081900360640190fd5b6001600160a01b038a166000908152600b60205260409020611f0490612cdf565b611f0f8a8a8a6122f7565b50505050505050505050565b6001600160a01b03918216600090815260016020908152604080832093909416825291909152205490565b60135481565b33600090815260156020526040902054811115611f6857600080fd5b33600090815260156020526040902054611f8290826121d6565b5061166e816018846040518082805190602001908083835b60208310611fb95780518252601f199092019160209182019101611f9a565b51815160209384036101000a60001901801990921691161790529201948552506040519384900301909220549291506121199050565b3360009081526017602052604090205461200890610c83565b6112d86110cf565b600f5481565b61201e6122f3565b6001600160a01b031661202f6118a5565b6001600160a01b031614612078576040805162461bcd60e51b815260206004820181905260248201526000805160206130bd833981519152604482015290519081900360640190fd5b6001600160a01b0381166120bd5760405162461bcd60e51b8152600401808060200182810382526026815260200180612fc26026913960400191505060405180910390fd5b600a546040516001600160a01b038084169216907f8be0079c531659141344cd1fd0a4f28419497f9722a3daafe3b4186f6b6457e090600090a3600a80546001600160a01b0319166001600160a01b0392909216919091179055565b600082820183811015612173576040805162461bcd60e51b815260206004820152601b60248201527f536166654d6174683a206164646974696f6e206f766572666c6f770000000000604482015290519081900360640190fd5b9392505050565b61218583838361166e565b6001600160a01b0383166121a95761219c82612ce8565b6121a4612d12565b61166e565b6001600160a01b0382166121c05761219c83612ce8565b6121c983612ce8565b61166e82612ce8565b5490565b60008282111561222d576040805162461bcd60e51b815260206004820152601e60248201527f536166654d6174683a207375627472616374696f6e206f766572666c6f770000604482015290519081900360640190fd5b50900390565b60008261224257506000610bb5565b8282028284828161224f57fe5b04146121735760405162461bcd60e51b81526004018080602001828103825260218152602001806130746021913960400191505060405180910390fd5b60008082116122e2576040805162461bcd60e51b815260206004820152601a60248201527f536166654d6174683a206469766973696f6e206279207a65726f000000000000604482015290519081900360640190fd5b8183816122eb57fe5b049392505050565b3390565b6001600160a01b03831661233c5760405162461bcd60e51b81526004018080602001828103825260248152602001806131476024913960400191505060405180910390fd5b6001600160a01b0382166123815760405162461bcd60e51b8152600401808060200182810382526022815260200180612fe86022913960400191505060405180910390fd5b6001600160a01b03808416600081815260016020908152604080832094871680845294825291829020859055815185815291517f8c5be1e5ebec7d5bd14f71427d1e84f3dd0314c0f7b2291e5b200ac8c7c3b9259281900390910190a3505050565b6001600160a01b0383166124285760405162461bcd60e51b81526004018080602001828103825260258152602001806131226025913960400191505060405180910390fd5b6001600160a01b03821661246d5760405162461bcd60e51b8152600401808060200182810382526023815260200180612f256023913960400191505060405180910390fd5b612478838383612d1f565b6124b58160405180606001604052806026815260200161300a602691396001600160a01b038616600090815260208190526040902054919061253e565b6001600160a01b0380851660009081526020819052604080822093909355908416815220546124e49082612119565b6001600160a01b038084166000818152602081815260409182902094909455805185815290519193928716927fddf252ad1be2c89b69c2b068fc378daa952ba7f163c4a11628f55a4df523b3ef92918290030190a3505050565b600081848411156125cd5760405162461bcd60e51b81526004018080602001828103825283818151815260200191508051906020019080838360005b8381101561259257818101518382015260200161257a565b50505050905090810190601f1680156125bf5780820380516001836020036101000a031916815260200191505b509250505060405180910390fd5b505050900390565b60007f0000000000000000000000000000000000000000000000000000000000000000612600612d77565b141561262d57507f0000000000000000000000000000000000000000000000000000000000000000610b88565b6126987f00000000000000000000000000000000000000000000000000000000000000007f00000000000000000000000000000000000000000000000000000000000000007f0000000000000000000000000000000000000000000000000000000000000000612d7b565b9050610b88565b6126a761153c565b6126ef576040805162461bcd60e51b815260206004820152601460248201527314185d5cd8589b194e881b9bdd081c185d5cd95960621b604482015290519081900360640190fd5b600a805460ff60a01b191690557f5db9ee0a495bf2e6ff9c91a7834c1ba4fdd244a5e8aa4e537bd38aeae4b073aa6127256122f3565b604080516001600160a01b039092168252519081900360200190a1565b6001600160a01b03821661279d576040805162461bcd60e51b815260206004820152601f60248201527f45524332303a206d696e7420746f20746865207a65726f206164647265737300604482015290519081900360640190fd5b6127a960008383612d1f565b6002546127b69082612119565b6002556001600160a01b0382166000908152602081905260409020546127dc9082612119565b6001600160a01b0383166000818152602081815260408083209490945583518581529351929391927fddf252ad1be2c89b69c2b068fc378daa952ba7f163c4a11628f55a4df523b3ef9281900390910190a35050565b6001600160a01b0382166128775760405162461bcd60e51b81526004018080602001828103825260218152602001806131016021913960400191505060405180910390fd5b61288382600083612d1f565b6128c081604051806060016040528060228152602001612fa0602291396001600160a01b038516600090815260208190526040902054919061253e565b6001600160a01b0383166000908152602081905260409020556002546128e690826121d6565b6002556040805182815290516000916001600160a01b038516917fddf252ad1be2c89b69c2b068fc378daa952ba7f163c4a11628f55a4df523b3ef9181900360200190a35050565b6000806000841161297f576040805162461bcd60e51b815260206004820152601660248201527504552433230536e617073686f743a20696420697320360541b604482015290519081900360640190fd5b61298960096121d2565b8411156129dd576040805162461bcd60e51b815260206004820152601d60248201527f4552433230536e617073686f743a206e6f6e6578697374656e74206964000000604482015290519081900360640190fd5b60006129e98486612ddd565b8454909150811415612a02576000809250925050612a24565b6001846001018281548110612a1357fe5b906000526020600020015492509250505b9250929050565b6000818310612a3a5781612173565b5090919050565b612a4961153c565b15612a8e576040805162461bcd60e51b815260206004820152601060248201526f14185d5cd8589b194e881c185d5cd95960821b604482015290519081900360640190fd5b600a805460ff60a01b1916600160a01b1790557f62e78cea01bee320cd4e420270b5ea74000d11b0c9f74754ebdbfc544b05a2586127256122f3565b6000612ad66009612cdf565b6000612ae260096121d2565b6040805182815290519192507f8030e83b04d87bef53480e26263266d6ca66863aa8506aca6f2559d18aa1cb67919081900360200190a1905090565b6000612b286125d5565b82604051602001808061190160f01b81525060020183815260200182815260200192505050604051602081830303815290604052805190602001209050919050565b60007f7fffffffffffffffffffffffffffffff5d576e7357a4501ddfe92f46681b20a0821115612bcb5760405162461bcd60e51b81526004018080602001828103825260228152602001806130306022913960400191505060405180910390fd5b8360ff16601b1480612be057508360ff16601c145b612c1b5760405162461bcd60e51b81526004018080602001828103825260228152602001806130526022913960400191505060405180910390fd5b600060018686868660405160008152602001604052604051808581526020018460ff1681526020018381526020018281526020019450505050506020604051602081039080840390855afa158015612c77573d6000803e3d6000fd5b5050604051601f1901519150506001600160a01b03811661146f576040805162461bcd60e51b815260206004820152601860248201527f45434453413a20696e76616c6964207369676e61747572650000000000000000604482015290519081900360640190fd5b80546001019055565b6001600160a01b038116600090815260066020526040902061135b90612d0d83611552565b612e7e565b6112d86007612d0d610bbb565b612d2761153c565b15612d6c576040805162461bcd60e51b815260206004820152601060248201526f14185d5cd8589b194e881c185d5cd95960821b604482015290519081900360640190fd5b61166e83838361217a565b4690565b6000838383612d88612d77565b3060405160200180868152602001858152602001848152602001838152602001826001600160a01b03168152602001955050505050506040516020818303038152906040528051906020012090509392505050565b8154600090612dee57506000610bb5565b82546000905b80821015612e3d576000612e088383612eca565b905084868281548110612e1757fe5b90600052602060002001541115612e3057809150612e37565b8060010192505b50612df4565b600082118015612e65575083856001840381548110612e5857fe5b9060005260206000200154145b15612e765750600019019050610bb5565b509050610bb5565b6000612e8a60096121d2565b905080612e9684612eef565b101561166e578254600180820185556000858152602080822090930193909355938401805494850181558252902090910155565b60006002808306600285060181612edd57fe5b04600283046002850401019392505050565b8054600090612f0057506000610aef565b815482906000198101908110612f1257fe5b90600052602060002001549050610aef56fe45524332303a207472616e7366657220746f20746865207a65726f206164647265737350726576696f7573207265776172647320706572696f64206d75737420626520636f6d706c657465206265666f7265206368616e67696e6720746865206475726174696f6e20666f7220746865206e657720706572696f6445524332303a206275726e20616d6f756e7420657863656564732062616c616e63654f776e61626c653a206e6577206f776e657220697320746865207a65726f206164647265737345524332303a20617070726f766520746f20746865207a65726f206164647265737345524332303a207472616e7366657220616d6f756e7420657863656564732062616c616e636545434453413a20696e76616c6964207369676e6174757265202773272076616c756545434453413a20696e76616c6964207369676e6174757265202776272076616c7565536166654d6174683a206d756c7469706c69636174696f6e206f766572666c6f7745524332303a207472616e7366657220616d6f756e74206578636565647320616c6c6f77616e63654f776e61626c653a2063616c6c6572206973206e6f7420746865206f776e657245524332303a206275726e20616d6f756e74206578636565647320616c6c6f77616e636545524332303a206275726e2066726f6d20746865207a65726f206164647265737345524332303a207472616e736665722066726f6d20746865207a65726f206164647265737345524332303a20617070726f76652066726f6d20746865207a65726f206164647265737343616e6e6f7420776974686472617720746865207374616b696e6720746f6b656e45524332303a2064656372656173656420616c6c6f77616e63652062656c6f77207a65726fa26469706673582212201bcac0bca3bd6c53769d0d26d193e8d58df23172835249d31a15f46519a61e7c64736f6c63430007060033",
    "sourcePath": "c:/Users/Melton/OneDrive/Documents/Blockchain/CuratorTokens/contracts/Voting.sol",
    "compiler": {
        "name": "solc",
        "version": "0.7.6+commit.7338295f"
    },
    "functionHashes": {
        "DOMAIN_SEPARATOR()": "3644e515",
        "allowance(address,address)": "dd62ed3e",
        "approve(address,uint256)": "095ea7b3",
        "balanceOf(address)": "70a08231",
        "balanceOfAt(address,uint256)": "4ee2cd7e",
        "balanceStakedOf(address)": "bf9c89bb",
        "burn(uint256)": "42966c68",
        "burnFrom(address,uint256)": "79cc6790",
        "content(uint256)": "baa0b806",
        "contentIdToContent(string)": "19c90e5f",
        "decimals()": "313ce567",
        "decreaseAllowance(address,uint256)": "a457c2d7",
        "earned(address)": "008cc262",
        "exit()": "e9fad8ee",
        "getReward()": "3d18b912",
        "getRewardForDuration()": "1c1f78eb",
        "increaseAllowance(address,uint256)": "39509351",
        "lastTimeRewardApplicable()": "80faa57d",
        "lastUpdateTime()": "c8f33c91",
        "mint(address,uint256)": "40c10f19",
        "name()": "06fdde03",
        "nonces(address)": "7ecebe00",
        "notifyRewardAmount(uint256)": "3c6b16ab",
        "owner()": "8da5cb5b",
        "pause()": "8456cb59",
        "paused()": "5c975abb",
        "periodFinish()": "ebe2b12b",
        "permit(address,address,uint256,uint256,uint8,bytes32,bytes32)": "d505accf",
        "recoverERC20(address,uint256)": "8980f11f",
        "renounceOwnership()": "715018a6",
        "rewardPerToken()": "cd3daf9d",
        "rewardPerTokenStored()": "df136d65",
        "rewardRate()": "7b0a47ee",
        "rewards(address)": "0700037d",
        "rewardsDuration()": "386a9525",
        "setRewardsDuration(uint256)": "cc1a378f",
        "snapshot()": "9711715a",
        "stake(uint256)": "a694fc3a",
        "symbol()": "95d89b41",
        "totalSupply()": "18160ddd",
        "totalSupplyAt(uint256)": "981b24d0",
        "totalSupplyStaked()": "631b8ad3",
        "transfer(address,uint256)": "a9059cbb",
        "transferFrom(address,address,uint256)": "23b872dd",
        "transferOwnership(address)": "f2fde38b",
        "unpause()": "3f4ba83a",
        "updatePeriodFinish(uint256)": "556f6e6b",
        "userRewardPerTokenPaid(address)": "8b876347",
        "voteCaption(string,uint256,uint256)": "45fbabf6",
        "voteContent(string,uint256)": "e2863f3d",
        "withdraw(uint256)": "2e1a7d4d"
    },
    "gasEstimates": {
        "creation": {
            "codeDepositCost": "2554800",
            "executionCost": "infinite",
            "totalCost": "infinite"
        },
        "external": {
            "DOMAIN_SEPARATOR()": "infinite",
            "allowance(address,address)": "1339",
            "approve(address,uint256)": "infinite",
            "balanceOf(address)": "1256",
            "balanceOfAt(address,uint256)": "infinite",
            "balanceStakedOf(address)": "1231",
            "burn(uint256)": "infinite",
            "burnFrom(address,uint256)": "infinite",
            "content(uint256)": "2012",
            "contentIdToContent(string)": "infinite",
            "decimals()": "1125",
            "decreaseAllowance(address,uint256)": "infinite",
            "earned(address)": "infinite",
            "exit()": "infinite",
            "getReward()": "infinite",
            "getRewardForDuration()": "infinite",
            "increaseAllowance(address,uint256)": "infinite",
            "lastTimeRewardApplicable()": "1196",
            "lastUpdateTime()": "1109",
            "mint(address,uint256)": "infinite",
            "name()": "infinite",
            "nonces(address)": "1276",
            "notifyRewardAmount(uint256)": "infinite",
            "owner()": "1127",
            "pause()": "infinite",
            "paused()": "1094",
            "periodFinish()": "1108",
            "permit(address,address,uint256,uint256,uint8,bytes32,bytes32)": "infinite",
            "recoverERC20(address,uint256)": "infinite",
            "renounceOwnership()": "infinite",
            "rewardPerToken()": "infinite",
            "rewardPerTokenStored()": "1109",
            "rewardRate()": "1066",
            "rewards(address)": "1215",
            "rewardsDuration()": "1154",
            "setRewardsDuration(uint256)": "infinite",
            "snapshot()": "infinite",
            "stake(uint256)": "infinite",
            "symbol()": "infinite",
            "totalSupply()": "1133",
            "totalSupplyAt(uint256)": "infinite",
            "totalSupplyStaked()": "1087",
            "transfer(address,uint256)": "infinite",
            "transferFrom(address,address,uint256)": "infinite",
            "transferOwnership(address)": "infinite",
            "unpause()": "infinite",
            "updatePeriodFinish(uint256)": "infinite",
            "userRewardPerTokenPaid(address)": "1192",
            "voteCaption(string,uint256,uint256)": "infinite",
            "voteContent(string,uint256)": "infinite",
            "withdraw(uint256)": "infinite"
        },
        "internal": {
            "makeNewContent(string memory)": "infinite"
        }
    }
}