{
    "contractName": "Voting",
    "abi": [
        {
            "inputs": [],
            "stateMutability": "nonpayable",
            "type": "constructor"
        },
        {
            "anonymous": false,
            "inputs": [
                {
                    "indexed": false,
                    "internalType": "string",
                    "name": "contentHash",
                    "type": "string"
                },
                {
                    "indexed": false,
                    "internalType": "uint256",
                    "name": "id",
                    "type": "uint256"
                }
            ],
            "name": "NewContent",
            "type": "event"
        },
        {
            "anonymous": false,
            "inputs": [
                {
                    "indexed": true,
                    "internalType": "address",
                    "name": "previousOwner",
                    "type": "address"
                },
                {
                    "indexed": true,
                    "internalType": "address",
                    "name": "newOwner",
                    "type": "address"
                }
            ],
            "name": "OwnershipTransferred",
            "type": "event"
        },
        {
            "anonymous": false,
            "inputs": [
                {
                    "indexed": false,
                    "internalType": "bool",
                    "name": "isPaused",
                    "type": "bool"
                }
            ],
            "name": "PauseChanged",
            "type": "event"
        },
        {
            "anonymous": false,
            "inputs": [
                {
                    "indexed": false,
                    "internalType": "address",
                    "name": "token",
                    "type": "address"
                },
                {
                    "indexed": false,
                    "internalType": "uint256",
                    "name": "amount",
                    "type": "uint256"
                }
            ],
            "name": "Recovered",
            "type": "event"
        },
        {
            "anonymous": false,
            "inputs": [
                {
                    "indexed": false,
                    "internalType": "uint256",
                    "name": "reward",
                    "type": "uint256"
                }
            ],
            "name": "RewardAdded",
            "type": "event"
        },
        {
            "anonymous": false,
            "inputs": [
                {
                    "indexed": true,
                    "internalType": "address",
                    "name": "user",
                    "type": "address"
                },
                {
                    "indexed": false,
                    "internalType": "uint256",
                    "name": "reward",
                    "type": "uint256"
                }
            ],
            "name": "RewardPaid",
            "type": "event"
        },
        {
            "anonymous": false,
            "inputs": [
                {
                    "indexed": false,
                    "internalType": "uint256",
                    "name": "newDuration",
                    "type": "uint256"
                }
            ],
            "name": "RewardsDurationUpdated",
            "type": "event"
        },
        {
            "anonymous": false,
            "inputs": [
                {
                    "indexed": true,
                    "internalType": "address",
                    "name": "user",
                    "type": "address"
                },
                {
                    "indexed": false,
                    "internalType": "uint256",
                    "name": "amount",
                    "type": "uint256"
                }
            ],
            "name": "Staked",
            "type": "event"
        },
        {
            "anonymous": false,
            "inputs": [
                {
                    "indexed": true,
                    "internalType": "address",
                    "name": "user",
                    "type": "address"
                },
                {
                    "indexed": false,
                    "internalType": "uint256",
                    "name": "amount",
                    "type": "uint256"
                }
            ],
            "name": "Withdrawn",
            "type": "event"
        },
        {
            "inputs": [
                {
                    "internalType": "address",
                    "name": "account",
                    "type": "address"
                }
            ],
            "name": "balanceOf",
            "outputs": [
                {
                    "internalType": "uint256",
                    "name": "",
                    "type": "uint256"
                }
            ],
            "stateMutability": "view",
            "type": "function"
        },
        {
            "inputs": [
                {
                    "internalType": "string",
                    "name": "",
                    "type": "string"
                }
            ],
            "name": "contentToContentObj",
            "outputs": [
                {
                    "internalType": "uint256",
                    "name": "totalVotes",
                    "type": "uint256"
                }
            ],
            "stateMutability": "view",
            "type": "function"
        },
        {
            "inputs": [
                {
                    "internalType": "address",
                    "name": "account",
                    "type": "address"
                }
            ],
            "name": "earned",
            "outputs": [
                {
                    "internalType": "uint256",
                    "name": "",
                    "type": "uint256"
                }
            ],
            "stateMutability": "view",
            "type": "function"
        },
        {
            "inputs": [],
            "name": "exit",
            "outputs": [],
            "stateMutability": "nonpayable",
            "type": "function"
        },
        {
            "inputs": [],
            "name": "getReward",
            "outputs": [],
            "stateMutability": "nonpayable",
            "type": "function"
        },
        {
            "inputs": [],
            "name": "getRewardForDuration",
            "outputs": [
                {
                    "internalType": "uint256",
                    "name": "",
                    "type": "uint256"
                }
            ],
            "stateMutability": "view",
            "type": "function"
        },
        {
            "inputs": [],
            "name": "lastPauseTime",
            "outputs": [
                {
                    "internalType": "uint256",
                    "name": "",
                    "type": "uint256"
                }
            ],
            "stateMutability": "view",
            "type": "function"
        },
        {
            "inputs": [],
            "name": "lastTimeRewardApplicable",
            "outputs": [
                {
                    "internalType": "uint256",
                    "name": "",
                    "type": "uint256"
                }
            ],
            "stateMutability": "view",
            "type": "function"
        },
        {
            "inputs": [],
            "name": "lastUpdateTime",
            "outputs": [
                {
                    "internalType": "uint256",
                    "name": "",
                    "type": "uint256"
                }
            ],
            "stateMutability": "view",
            "type": "function"
        },
        {
            "inputs": [
                {
                    "internalType": "uint256",
                    "name": "reward",
                    "type": "uint256"
                }
            ],
            "name": "notifyRewardAmount",
            "outputs": [],
            "stateMutability": "nonpayable",
            "type": "function"
        },
        {
            "inputs": [],
            "name": "owner",
            "outputs": [
                {
                    "internalType": "address",
                    "name": "",
                    "type": "address"
                }
            ],
            "stateMutability": "view",
            "type": "function"
        },
        {
            "inputs": [],
            "name": "paused",
            "outputs": [
                {
                    "internalType": "bool",
                    "name": "",
                    "type": "bool"
                }
            ],
            "stateMutability": "view",
            "type": "function"
        },
        {
            "inputs": [],
            "name": "periodFinish",
            "outputs": [
                {
                    "internalType": "uint256",
                    "name": "",
                    "type": "uint256"
                }
            ],
            "stateMutability": "view",
            "type": "function"
        },
        {
            "inputs": [
                {
                    "internalType": "address",
                    "name": "tokenAddress",
                    "type": "address"
                },
                {
                    "internalType": "uint256",
                    "name": "tokenAmount",
                    "type": "uint256"
                }
            ],
            "name": "recoverERC20",
            "outputs": [],
            "stateMutability": "nonpayable",
            "type": "function"
        },
        {
            "inputs": [],
            "name": "renounceOwnership",
            "outputs": [],
            "stateMutability": "nonpayable",
            "type": "function"
        },
        {
            "inputs": [],
            "name": "rewardPerToken",
            "outputs": [
                {
                    "internalType": "uint256",
                    "name": "",
                    "type": "uint256"
                }
            ],
            "stateMutability": "view",
            "type": "function"
        },
        {
            "inputs": [],
            "name": "rewardPerTokenStored",
            "outputs": [
                {
                    "internalType": "uint256",
                    "name": "",
                    "type": "uint256"
                }
            ],
            "stateMutability": "view",
            "type": "function"
        },
        {
            "inputs": [],
            "name": "rewardRate",
            "outputs": [
                {
                    "internalType": "uint256",
                    "name": "",
                    "type": "uint256"
                }
            ],
            "stateMutability": "view",
            "type": "function"
        },
        {
            "inputs": [
                {
                    "internalType": "address",
                    "name": "",
                    "type": "address"
                }
            ],
            "name": "rewards",
            "outputs": [
                {
                    "internalType": "uint256",
                    "name": "",
                    "type": "uint256"
                }
            ],
            "stateMutability": "view",
            "type": "function"
        },
        {
            "inputs": [],
            "name": "rewardsDistribution",
            "outputs": [
                {
                    "internalType": "address",
                    "name": "",
                    "type": "address"
                }
            ],
            "stateMutability": "view",
            "type": "function"
        },
        {
            "inputs": [],
            "name": "rewardsDuration",
            "outputs": [
                {
                    "internalType": "uint256",
                    "name": "",
                    "type": "uint256"
                }
            ],
            "stateMutability": "view",
            "type": "function"
        },
        {
            "inputs": [],
            "name": "rewardsToken",
            "outputs": [
                {
                    "internalType": "contract IERC20",
                    "name": "",
                    "type": "address"
                }
            ],
            "stateMutability": "view",
            "type": "function"
        },
        {
            "inputs": [
                {
                    "internalType": "bool",
                    "name": "_paused",
                    "type": "bool"
                }
            ],
            "name": "setPaused",
            "outputs": [],
            "stateMutability": "nonpayable",
            "type": "function"
        },
        {
            "inputs": [
                {
                    "internalType": "address",
                    "name": "_rewardsDistribution",
                    "type": "address"
                }
            ],
            "name": "setRewardsDistribution",
            "outputs": [],
            "stateMutability": "nonpayable",
            "type": "function"
        },
        {
            "inputs": [
                {
                    "internalType": "uint256",
                    "name": "_rewardsDuration",
                    "type": "uint256"
                }
            ],
            "name": "setRewardsDuration",
            "outputs": [],
            "stateMutability": "nonpayable",
            "type": "function"
        },
        {
            "inputs": [
                {
                    "internalType": "uint256",
                    "name": "amount",
                    "type": "uint256"
                }
            ],
            "name": "stake",
            "outputs": [],
            "stateMutability": "nonpayable",
            "type": "function"
        },
        {
            "inputs": [],
            "name": "stakingToken",
            "outputs": [
                {
                    "internalType": "contract IERC20",
                    "name": "",
                    "type": "address"
                }
            ],
            "stateMutability": "view",
            "type": "function"
        },
        {
            "inputs": [],
            "name": "totalSupply",
            "outputs": [
                {
                    "internalType": "uint256",
                    "name": "",
                    "type": "uint256"
                }
            ],
            "stateMutability": "view",
            "type": "function"
        },
        {
            "inputs": [
                {
                    "internalType": "address",
                    "name": "newOwner",
                    "type": "address"
                }
            ],
            "name": "transferOwnership",
            "outputs": [],
            "stateMutability": "nonpayable",
            "type": "function"
        },
        {
            "inputs": [
                {
                    "internalType": "uint256",
                    "name": "timestamp",
                    "type": "uint256"
                }
            ],
            "name": "updatePeriodFinish",
            "outputs": [],
            "stateMutability": "nonpayable",
            "type": "function"
        },
        {
            "inputs": [
                {
                    "internalType": "address",
                    "name": "",
                    "type": "address"
                }
            ],
            "name": "userRewardPerTokenPaid",
            "outputs": [
                {
                    "internalType": "uint256",
                    "name": "",
                    "type": "uint256"
                }
            ],
            "stateMutability": "view",
            "type": "function"
        },
        {
            "inputs": [
                {
                    "internalType": "string",
                    "name": "_con",
                    "type": "string"
                },
                {
                    "internalType": "string",
                    "name": "_cap",
                    "type": "string"
                }
            ],
            "name": "voteCaption",
            "outputs": [],
            "stateMutability": "nonpayable",
            "type": "function"
        },
        {
            "inputs": [
                {
                    "internalType": "string",
                    "name": "_con",
                    "type": "string"
                }
            ],
            "name": "voteContent",
            "outputs": [],
            "stateMutability": "nonpayable",
            "type": "function"
        },
        {
            "inputs": [
                {
                    "internalType": "uint256",
                    "name": "amount",
                    "type": "uint256"
                }
            ],
            "name": "withdraw",
            "outputs": [],
            "stateMutability": "nonpayable",
            "type": "function"
        }
    ],
    "bytecode": "60806040526000600655600060075562093a8060085534801561002157600080fd5b50303030306001600081905550600061003e61013860201b60201c565b600180546001600160a01b0319166001600160a01b038316908117909155604051919250906000907f8be0079c531659141344cd1fd0a4f28419497f9722a3daafe3b4186f6b6457e0908290a350600061009661013c565b6001600160a01b031614156100e6576040805162461bcd60e51b815260206004820152601160248201527013dddb995c881b5d5cdd081899481cd95d607a1b604482015290519081900360640190fd5b600480546001600160a01b03199081166001600160a01b03948516179091556005805490911691831691909117905560038054610100600160a81b03191661010093909216929092021790555061014b565b3390565b6001546001600160a01b031690565b611bea8061015a6000396000f3fe608060405234801561001057600080fd5b50600436106102055760003560e01c80637e6363611161011a578063c8f33c91116100ad578063df136d651161007c578063df136d651461062d578063e9fad8ee14610635578063ebe2b12b1461063d578063f2fde38b14610645578063f41e868a1461066b57610205565b8063c8f33c91146105f8578063cc1a378f14610600578063cd3daf9d1461061d578063d1af0c7d1461062557610205565b80638da5cb5b116100e95780638da5cb5b146104a257806391b4ded9146104aa5780639361f8d9146104b2578063a694fc3a146105db57610205565b80637e636361146103a457806380faa57d146104485780638980f11f146104505780638b8763471461047c57610205565b80633c6b16ab1161019d5780635c975abb1161016c5780635c975abb1461034a57806370a0823114610366578063715018a61461038c57806372f702f3146103945780637b0a47ee1461039c57610205565b80633c6b16ab146102e45780633d18b912146103015780633fc6df6e14610309578063556f6e6b1461032d57610205565b806319762143116101d957806319762143146102915780631c1f78eb146102b75780632e1a7d4d146102bf578063386a9525146102dc57610205565b80628cc2621461020a5780630700037d1461024257806316c38b3c1461026857806318160ddd14610289575b600080fd5b6102306004803603602081101561022057600080fd5b50356001600160a01b031661070f565b60408051918252519081900360200190f35b6102306004803603602081101561025857600080fd5b50356001600160a01b031661078d565b6102876004803603602081101561027e57600080fd5b5035151561079f565b005b610230610873565b610287600480360360208110156102a757600080fd5b50356001600160a01b031661087a565b610230610904565b610287600480360360208110156102d557600080fd5b5035610922565b610230610b1d565b610287600480360360208110156102fa57600080fd5b5035610b23565b610287610d5f565b610311610efd565b604080516001600160a01b039092168252519081900360200190f35b6102876004803603602081101561034357600080fd5b5035610f11565b610352610fd5565b604080519115158252519081900360200190f35b6102306004803603602081101561037c57600080fd5b50356001600160a01b0316610fde565b610287610ff9565b6103116110a5565b6102306110b4565b610230600480360360208110156103ba57600080fd5b810190602081018135600160201b8111156103d457600080fd5b8201836020820111156103e657600080fd5b803590602001918460018302840111600160201b8311171561040757600080fd5b91908080601f0160208091040260200160405190810160405280939291908181526020018383808284376000920191909152509295506110ba945050505050565b6102306110da565b6102876004803603604081101561046657600080fd5b506001600160a01b0381351690602001356110e8565b6102306004803603602081101561049257600080fd5b50356001600160a01b0316611269565b61031161127b565b61023061128a565b610287600480360360408110156104c857600080fd5b810190602081018135600160201b8111156104e257600080fd5b8201836020820111156104f457600080fd5b803590602001918460018302840111600160201b8311171561051557600080fd5b91908080601f0160208091040260200160405190810160405280939291908181526020018383808284376000920191909152509295949360208101935035915050600160201b81111561056757600080fd5b82018360208201111561057957600080fd5b803590602001918460018302840111600160201b8311171561059a57600080fd5b91908080601f016020809104026020016040519081016040528093929190818152602001838380828437600092019190915250929550611290945050505050565b610287600480360360208110156105f157600080fd5b5035611397565b6102306115d7565b6102876004803603602081101561061657600080fd5b50356115dd565b6102306116ba565b610311611708565b610230611717565b61028761171d565b610230611740565b6102876004803603602081101561065b57600080fd5b50356001600160a01b0316611746565b6102876004803603602081101561068157600080fd5b810190602081018135600160201b81111561069b57600080fd5b8201836020820111156106ad57600080fd5b803590602001918460018302840111600160201b831117156106ce57600080fd5b91908080601f016020809104026020016040519081016040528093929190818152602001838380828437600092019190915250929550611849945050505050565b6001600160a01b0381166000908152600c6020908152604080832054600b909252822054610787919061078190670de0b6b3a76400009061077b9061075c906107566116ba565b906118d6565b6001600160a01b0388166000908152600e602052604090205490611933565b90611993565b906119fa565b92915050565b600c6020526000908152604090205481565b6107a7611a54565b6001600160a01b03166107b861127b565b6001600160a01b031614610801576040805162461bcd60e51b81526020600482018190526024820152600080516020611b0e833981519152604482015290519081900360640190fd5b60035460ff161515811515141561081757610870565b6003805460ff1916821515179081905560ff161561083457426002555b6003546040805160ff90921615158252517f8fb6c181ee25a520cf3dd6565006ef91229fcfe5a989566c2a3b8c115570cec59181900360200190a15b50565b600d545b90565b610882611a54565b6001600160a01b031661089361127b565b6001600160a01b0316146108dc576040805162461bcd60e51b81526020600482018190526024820152600080516020611b0e833981519152604482015290519081900360640190fd5b600380546001600160a01b0390921661010002610100600160a81b0319909216919091179055565b600061091d60085460075461193390919063ffffffff16565b905090565b6002600054141561097a576040805162461bcd60e51b815260206004820152601f60248201527f5265656e7472616e637947756172643a207265656e7472616e742063616c6c00604482015290519081900360640190fd5b6002600055336109886116ba565b600a556109936110da565b6009556001600160a01b038116156109da576109ae8161070f565b6001600160a01b0382166000908152600c6020908152604080832093909355600a54600b909152919020555b60008211610a23576040805162461bcd60e51b8152602060048201526011602482015270043616e6e6f74207769746864726177203607c1b604482015290519081900360640190fd5b600d54610a3090836118d6565b600d55336000908152600e6020526040902054610a4d90836118d6565b336000818152600e6020908152604080832094909455600554845163a9059cbb60e01b815260048101949094526024840187905293516001600160a01b039094169363a9059cbb93604480820194918390030190829087803b158015610ab257600080fd5b505af1158015610ac6573d6000803e3d6000fd5b505050506040513d6020811015610adc57600080fd5b505060408051838152905133917f7084f5476618d8e60b11ef0d7d3f06914655adb8793e28ff7f018d4c76d505d5919081900360200190a250506001600055565b60085481565b60035461010090046001600160a01b03163314610b715760405162461bcd60e51b815260040180806020018281038252602a815260200180611b6a602a913960400191505060405180910390fd5b6000610b7b6116ba565b600a55610b866110da565b6009556001600160a01b03811615610bcd57610ba18161070f565b6001600160a01b0382166000908152600c6020908152604080832093909355600a54600b909152919020555b6006544210610bec57600854610be4908390611993565b600755610c2f565b600654600090610bfc90426118d6565b90506000610c156007548361193390919063ffffffff16565b600854909150610c299061077b86846119fa565b60075550505b60048054604080516370a0823160e01b81523093810193909352516000926001600160a01b03909216916370a08231916024808301926020929190829003018186803b158015610c7e57600080fd5b505afa158015610c92573d6000803e3d6000fd5b505050506040513d6020811015610ca857600080fd5b5051600854909150610cbb908290611993565b6007541115610d11576040805162461bcd60e51b815260206004820152601860248201527f50726f76696465642072657761726420746f6f20686967680000000000000000604482015290519081900360640190fd5b426009819055600854610d2491906119fa565b6006556040805184815290517fde88a922e0d3b88b24e9623efeb464919c6bf9f66857a65e2bfcf2ce87a9433d9181900360200190a1505050565b60026000541415610db7576040805162461bcd60e51b815260206004820152601f60248201527f5265656e7472616e637947756172643a207265656e7472616e742063616c6c00604482015290519081900360640190fd5b600260005533610dc56116ba565b600a55610dd06110da565b6009556001600160a01b03811615610e1757610deb8161070f565b6001600160a01b0382166000908152600c6020908152604080832093909355600a54600b909152919020555b336000908152600c60205260409020548015610ef457336000818152600c6020908152604080832083905560048054825163a9059cbb60e01b8152918201959095526024810186905290516001600160a01b039094169363a9059cbb93604480840194938390030190829087803b158015610e9157600080fd5b505af1158015610ea5573d6000803e3d6000fd5b505050506040513d6020811015610ebb57600080fd5b505060408051828152905133917fe2403640ba68fed3a2f88b7557551d1993f84b99bb10ff833f0cf8db0c5e0486919081900360200190a25b50506001600055565b60035461010090046001600160a01b031681565b610f19611a54565b6001600160a01b0316610f2a61127b565b6001600160a01b031614610f73576040805162461bcd60e51b81526020600482018190526024820152600080516020611b0e833981519152604482015290519081900360640190fd5b6000610f7d6116ba565b600a55610f886110da565b6009556001600160a01b03811615610fcf57610fa38161070f565b6001600160a01b0382166000908152600c6020908152604080832093909355600a54600b909152919020555b50600655565b60035460ff1681565b6001600160a01b03166000908152600e602052604090205490565b611001611a54565b6001600160a01b031661101261127b565b6001600160a01b03161461105b576040805162461bcd60e51b81526020600482018190526024820152600080516020611b0e833981519152604482015290519081900360640190fd5b6001546040516000916001600160a01b0316907f8be0079c531659141344cd1fd0a4f28419497f9722a3daafe3b4186f6b6457e0908390a3600180546001600160a01b0319169055565b6005546001600160a01b031681565b60075481565b8051602081830181018051600f8252928201919093012091526002015481565b600061091d42600654611a58565b6110f0611a54565b6001600160a01b031661110161127b565b6001600160a01b03161461114a576040805162461bcd60e51b81526020600482018190526024820152600080516020611b0e833981519152604482015290519081900360640190fd5b6005546001600160a01b03838116911614156111975760405162461bcd60e51b8152600401808060200182810382526021815260200180611b946021913960400191505060405180910390fd5b816001600160a01b031663a9059cbb6111ae61127b565b836040518363ffffffff1660e01b815260040180836001600160a01b0316815260200182815260200192505050602060405180830381600087803b1580156111f557600080fd5b505af1158015611209573d6000803e3d6000fd5b505050506040513d602081101561121f57600080fd5b5050604080516001600160a01b03841681526020810183905281517f8c1256b8896378cd5044f80c202f9772b9d77dc85c8a6eb51967210b09bfaa28929181900390910190a15050565b600b6020526000908152604090205481565b6001546001600160a01b031690565b60025481565b336000908152600c60205260409020546112a957600080fd5b336000908152600c60205260409020546112c49060016118d6565b506113926001600f846040518082805190602001908083835b602083106112fc5780518252601f1990920191602091820191016112dd565b51815160209384036101000a600019018019909216911617905292019485525060405193849003810184208751600190910194889450925082918401908083835b6020831061135c5780518252601f19909201916020918201910161133d565b51815160209384036101000a60001901801990921691161790529201948552506040519384900301909220549291506119fa9050565b505050565b600260005414156113ef576040805162461bcd60e51b815260206004820152601f60248201527f5265656e7472616e637947756172643a207265656e7472616e742063616c6c00604482015290519081900360640190fd5b600260005560035460ff16156114365760405162461bcd60e51b815260040180806020018281038252603c815260200180611b2e603c913960400191505060405180910390fd5b3361143f6116ba565b600a5561144a6110da565b6009556001600160a01b03811615611491576114658161070f565b6001600160a01b0382166000908152600c6020908152604080832093909355600a54600b909152919020555b600082116114d7576040805162461bcd60e51b815260206004820152600e60248201526d043616e6e6f74207374616b6520360941b604482015290519081900360640190fd5b600d546114e490836119fa565b600d55336000908152600e602052604090205461150190836119fa565b336000818152600e602090815260408083209490945560055484516323b872dd60e01b815260048101949094523060248501526044840187905293516001600160a01b03909416936323b872dd93606480820194918390030190829087803b15801561156c57600080fd5b505af1158015611580573d6000803e3d6000fd5b505050506040513d602081101561159657600080fd5b505060408051838152905133917f9e71bc8eea02a63969f509818f2dafb9254532904319f9dbda79b67bd34a5f3d919081900360200190a250506001600055565b60095481565b6115e5611a54565b6001600160a01b03166115f661127b565b6001600160a01b03161461163f576040805162461bcd60e51b81526020600482018190526024820152600080516020611b0e833981519152604482015290519081900360640190fd5b600654421161167f5760405162461bcd60e51b8152600401808060200182810382526058815260200180611a6f6058913960600191505060405180910390fd5b60088190556040805182815290517ffb46ca5a5e06d4540d6387b930a7c978bce0db5f449ec6b3f5d07c6e1d44f2d39181900360200190a150565b6000600d54600014156116d05750600a54610877565b61091d6116ff600d5461077b670de0b6b3a76400006116f96007546116f96009546107566110da565b90611933565b600a54906119fa565b6004546001600160a01b031681565b600a5481565b336000908152600e602052604090205461173690610922565b61173e610d5f565b565b60065481565b61174e611a54565b6001600160a01b031661175f61127b565b6001600160a01b0316146117a8576040805162461bcd60e51b81526020600482018190526024820152600080516020611b0e833981519152604482015290519081900360640190fd5b6001600160a01b0381166117ed5760405162461bcd60e51b8152600401808060200182810382526026815260200180611ac76026913960400191505060405180910390fd5b6001546040516001600160a01b038084169216907f8be0079c531659141344cd1fd0a4f28419497f9722a3daafe3b4186f6b6457e090600090a3600180546001600160a01b0319166001600160a01b0392909216919091179055565b336000908152600c602052604090205461186257600080fd5b6118d26001600f836040518082805190602001908083835b602083106118995780518252601f19909201916020918201910161187a565b51815160209384036101000a60001901801990921691161790529201948552506040519384900301909220600201549291506119fa9050565b5050565b60008282111561192d576040805162461bcd60e51b815260206004820152601e60248201527f536166654d6174683a207375627472616374696f6e206f766572666c6f770000604482015290519081900360640190fd5b50900390565b60008261194257506000610787565b8282028284828161194f57fe5b041461198c5760405162461bcd60e51b8152600401808060200182810382526021815260200180611aed6021913960400191505060405180910390fd5b9392505050565b60008082116119e9576040805162461bcd60e51b815260206004820152601a60248201527f536166654d6174683a206469766973696f6e206279207a65726f000000000000604482015290519081900360640190fd5b8183816119f257fe5b049392505050565b60008282018381101561198c576040805162461bcd60e51b815260206004820152601b60248201527f536166654d6174683a206164646974696f6e206f766572666c6f770000000000604482015290519081900360640190fd5b3390565b6000818310611a67578161198c565b509091905056fe50726576696f7573207265776172647320706572696f64206d75737420626520636f6d706c657465206265666f7265206368616e67696e6720746865206475726174696f6e20666f7220746865206e657720706572696f644f776e61626c653a206e6577206f776e657220697320746865207a65726f2061646472657373536166654d6174683a206d756c7469706c69636174696f6e206f766572666c6f774f776e61626c653a2063616c6c6572206973206e6f7420746865206f776e65725468697320616374696f6e2063616e6e6f7420626520706572666f726d6564207768696c652074686520636f6e74726163742069732070617573656443616c6c6572206973206e6f742052657761726473446973747269627574696f6e20636f6e747261637443616e6e6f7420776974686472617720746865207374616b696e6720746f6b656ea2646970667358221220f260d2f22d087abb629514077c5d53b1c38d5c1b6e0222e1f5824a88c4bfbece64736f6c63430007060033",
    "sourcePath": "c:/Users/Melton/OneDrive/Documents/Blockchain/CuratorTokens/contracts/Voting.sol",
    "compiler": {
        "name": "solc",
        "version": "0.7.6+commit.7338295f"
    },
    "functionHashes": {
        "balanceOf(address)": "70a08231",
        "contentToContentObj(string)": "7e636361",
        "earned(address)": "008cc262",
        "exit()": "e9fad8ee",
        "getReward()": "3d18b912",
        "getRewardForDuration()": "1c1f78eb",
        "lastPauseTime()": "91b4ded9",
        "lastTimeRewardApplicable()": "80faa57d",
        "lastUpdateTime()": "c8f33c91",
        "notifyRewardAmount(uint256)": "3c6b16ab",
        "owner()": "8da5cb5b",
        "paused()": "5c975abb",
        "periodFinish()": "ebe2b12b",
        "recoverERC20(address,uint256)": "8980f11f",
        "renounceOwnership()": "715018a6",
        "rewardPerToken()": "cd3daf9d",
        "rewardPerTokenStored()": "df136d65",
        "rewardRate()": "7b0a47ee",
        "rewards(address)": "0700037d",
        "rewardsDistribution()": "3fc6df6e",
        "rewardsDuration()": "386a9525",
        "rewardsToken()": "d1af0c7d",
        "setPaused(bool)": "16c38b3c",
        "setRewardsDistribution(address)": "19762143",
        "setRewardsDuration(uint256)": "cc1a378f",
        "stake(uint256)": "a694fc3a",
        "stakingToken()": "72f702f3",
        "totalSupply()": "18160ddd",
        "transferOwnership(address)": "f2fde38b",
        "updatePeriodFinish(uint256)": "556f6e6b",
        "userRewardPerTokenPaid(address)": "8b876347",
        "voteCaption(string,string)": "9361f8d9",
        "voteContent(string)": "f41e868a",
        "withdraw(uint256)": "2e1a7d4d"
    },
    "gasEstimates": {
        "creation": {
            "codeDepositCost": "1429200",
            "executionCost": "infinite",
            "totalCost": "infinite"
        },
        "external": {
            "balanceOf(address)": "1209",
            "contentToContentObj(string)": "infinite",
            "earned(address)": "infinite",
            "exit()": "infinite",
            "getReward()": "infinite",
            "getRewardForDuration()": "infinite",
            "lastPauseTime()": "1065",
            "lastTimeRewardApplicable()": "1152",
            "lastUpdateTime()": "1043",
            "notifyRewardAmount(uint256)": "infinite",
            "owner()": "1082",
            "paused()": "1055",
            "periodFinish()": "1086",
            "recoverERC20(address,uint256)": "infinite",
            "renounceOwnership()": "infinite",
            "rewardPerToken()": "infinite",
            "rewardPerTokenStored()": "1042",
            "rewardRate()": "1131",
            "rewards(address)": "1193",
            "rewardsDistribution()": "1138",
            "rewardsDuration()": "1110",
            "rewardsToken()": "1148",
            "setPaused(bool)": "infinite",
            "setRewardsDistribution(address)": "infinite",
            "setRewardsDuration(uint256)": "infinite",
            "stake(uint256)": "infinite",
            "stakingToken()": "1148",
            "totalSupply()": "1112",
            "transferOwnership(address)": "infinite",
            "updatePeriodFinish(uint256)": "infinite",
            "userRewardPerTokenPaid(address)": "1236",
            "voteCaption(string,string)": "infinite",
            "voteContent(string)": "infinite",
            "withdraw(uint256)": "infinite"
        },
        "internal": {
            "makeNewContent(string memory)": "infinite"
        }
    }
}