{
  "_format": "hh-sol-artifact-1",
  "contractName": "Voting",
  "sourceName": "contracts/Voting.sol",
  "abi": [
    {
      "anonymous": false,
      "inputs": [
        {
          "indexed": true,
          "internalType": "address",
          "name": "owner",
          "type": "address"
        },
        {
          "indexed": true,
          "internalType": "address",
          "name": "spender",
          "type": "address"
        },
        {
          "indexed": false,
          "internalType": "uint256",
          "name": "value",
          "type": "uint256"
        }
      ],
      "name": "Approval",
      "type": "event"
    },
    {
      "anonymous": false,
      "inputs": [
        {
          "indexed": false,
          "internalType": "uint256",
          "name": "size",
          "type": "uint256"
        }
      ],
      "name": "NewContent",
      "type": "event"
    },
    {
      "anonymous": false,
      "inputs": [
        {
          "indexed": true,
          "internalType": "address",
          "name": "previousOwner",
          "type": "address"
        },
        {
          "indexed": true,
          "internalType": "address",
          "name": "newOwner",
          "type": "address"
        }
      ],
      "name": "OwnershipTransferred",
      "type": "event"
    },
    {
      "anonymous": false,
      "inputs": [
        {
          "indexed": false,
          "internalType": "address",
          "name": "account",
          "type": "address"
        }
      ],
      "name": "Paused",
      "type": "event"
    },
    {
      "anonymous": false,
      "inputs": [
        {
          "indexed": false,
          "internalType": "address",
          "name": "token",
          "type": "address"
        },
        {
          "indexed": false,
          "internalType": "uint256",
          "name": "amount",
          "type": "uint256"
        }
      ],
      "name": "Recovered",
      "type": "event"
    },
    {
      "anonymous": false,
      "inputs": [
        {
          "indexed": false,
          "internalType": "uint256",
          "name": "reward",
          "type": "uint256"
        }
      ],
      "name": "RewardAdded",
      "type": "event"
    },
    {
      "anonymous": false,
      "inputs": [
        {
          "indexed": true,
          "internalType": "address",
          "name": "user",
          "type": "address"
        },
        {
          "indexed": false,
          "internalType": "uint256",
          "name": "reward",
          "type": "uint256"
        }
      ],
      "name": "RewardPaid",
      "type": "event"
    },
    {
      "anonymous": false,
      "inputs": [
        {
          "indexed": false,
          "internalType": "uint256",
          "name": "newDuration",
          "type": "uint256"
        }
      ],
      "name": "RewardsDurationUpdated",
      "type": "event"
    },
    {
      "anonymous": false,
      "inputs": [
        {
          "indexed": false,
          "internalType": "uint256",
          "name": "id",
          "type": "uint256"
        }
      ],
      "name": "Snapshot",
      "type": "event"
    },
    {
      "anonymous": false,
      "inputs": [
        {
          "indexed": true,
          "internalType": "address",
          "name": "user",
          "type": "address"
        },
        {
          "indexed": false,
          "internalType": "uint256",
          "name": "amount",
          "type": "uint256"
        }
      ],
      "name": "Staked",
      "type": "event"
    },
    {
      "anonymous": false,
      "inputs": [
        {
          "indexed": true,
          "internalType": "address",
          "name": "from",
          "type": "address"
        },
        {
          "indexed": true,
          "internalType": "address",
          "name": "to",
          "type": "address"
        },
        {
          "indexed": false,
          "internalType": "uint256",
          "name": "value",
          "type": "uint256"
        }
      ],
      "name": "Transfer",
      "type": "event"
    },
    {
      "anonymous": false,
      "inputs": [
        {
          "indexed": false,
          "internalType": "address",
          "name": "account",
          "type": "address"
        }
      ],
      "name": "Unpaused",
      "type": "event"
    },
    {
      "anonymous": false,
      "inputs": [
        {
          "indexed": true,
          "internalType": "address",
          "name": "user",
          "type": "address"
        },
        {
          "indexed": false,
          "internalType": "uint256",
          "name": "amount",
          "type": "uint256"
        }
      ],
      "name": "Withdrawn",
      "type": "event"
    },
    {
      "inputs": [],
      "name": "DOMAIN_SEPARATOR",
      "outputs": [
        {
          "internalType": "bytes32",
          "name": "",
          "type": "bytes32"
        }
      ],
      "stateMutability": "view",
      "type": "function"
    },
    {
      "inputs": [
        {
          "internalType": "string",
          "name": "_con",
          "type": "string"
        }
      ],
      "name": "addNewContent",
      "outputs": [],
      "stateMutability": "nonpayable",
      "type": "function"
    },
    {
      "inputs": [
        {
          "internalType": "address",
          "name": "owner",
          "type": "address"
        },
        {
          "internalType": "address",
          "name": "spender",
          "type": "address"
        }
      ],
      "name": "allowance",
      "outputs": [
        {
          "internalType": "uint256",
          "name": "",
          "type": "uint256"
        }
      ],
      "stateMutability": "view",
      "type": "function"
    },
    {
      "inputs": [
        {
          "internalType": "address",
          "name": "spender",
          "type": "address"
        },
        {
          "internalType": "uint256",
          "name": "amount",
          "type": "uint256"
        }
      ],
      "name": "approve",
      "outputs": [
        {
          "internalType": "bool",
          "name": "",
          "type": "bool"
        }
      ],
      "stateMutability": "nonpayable",
      "type": "function"
    },
    {
      "inputs": [
        {
          "internalType": "address",
          "name": "account",
          "type": "address"
        }
      ],
      "name": "balanceOf",
      "outputs": [
        {
          "internalType": "uint256",
          "name": "",
          "type": "uint256"
        }
      ],
      "stateMutability": "view",
      "type": "function"
    },
    {
      "inputs": [
        {
          "internalType": "address",
          "name": "account",
          "type": "address"
        },
        {
          "internalType": "uint256",
          "name": "snapshotId",
          "type": "uint256"
        }
      ],
      "name": "balanceOfAt",
      "outputs": [
        {
          "internalType": "uint256",
          "name": "",
          "type": "uint256"
        }
      ],
      "stateMutability": "view",
      "type": "function"
    },
    {
      "inputs": [
        {
          "internalType": "address",
          "name": "account",
          "type": "address"
        }
      ],
      "name": "balanceStakedOf",
      "outputs": [
        {
          "internalType": "uint256",
          "name": "",
          "type": "uint256"
        }
      ],
      "stateMutability": "view",
      "type": "function"
    },
    {
      "inputs": [
        {
          "internalType": "uint256",
          "name": "amount",
          "type": "uint256"
        }
      ],
      "name": "burn",
      "outputs": [],
      "stateMutability": "nonpayable",
      "type": "function"
    },
    {
      "inputs": [
        {
          "internalType": "address",
          "name": "account",
          "type": "address"
        },
        {
          "internalType": "uint256",
          "name": "amount",
          "type": "uint256"
        }
      ],
      "name": "burnFrom",
      "outputs": [],
      "stateMutability": "nonpayable",
      "type": "function"
    },
    {
      "inputs": [
        {
          "internalType": "uint256",
          "name": "",
          "type": "uint256"
        }
      ],
      "name": "content",
      "outputs": [
        {
          "internalType": "string",
          "name": "",
          "type": "string"
        }
      ],
      "stateMutability": "view",
      "type": "function"
    },
    {
      "inputs": [
        {
          "internalType": "string",
          "name": "",
          "type": "string"
        }
      ],
      "name": "contentIdToContent",
      "outputs": [
        {
          "internalType": "uint256",
          "name": "totalVotes",
          "type": "uint256"
        }
      ],
      "stateMutability": "view",
      "type": "function"
    },
    {
      "inputs": [],
      "name": "decimals",
      "outputs": [
        {
          "internalType": "uint8",
          "name": "",
          "type": "uint8"
        }
      ],
      "stateMutability": "view",
      "type": "function"
    },
    {
      "inputs": [
        {
          "internalType": "address",
          "name": "spender",
          "type": "address"
        },
        {
          "internalType": "uint256",
          "name": "subtractedValue",
          "type": "uint256"
        }
      ],
      "name": "decreaseAllowance",
      "outputs": [
        {
          "internalType": "bool",
          "name": "",
          "type": "bool"
        }
      ],
      "stateMutability": "nonpayable",
      "type": "function"
    },
    {
      "inputs": [
        {
          "internalType": "address",
          "name": "account",
          "type": "address"
        }
      ],
      "name": "earned",
      "outputs": [
        {
          "internalType": "uint256",
          "name": "",
          "type": "uint256"
        }
      ],
      "stateMutability": "view",
      "type": "function"
    },
    {
      "inputs": [],
      "name": "exit",
      "outputs": [],
      "stateMutability": "nonpayable",
      "type": "function"
    },
    {
      "inputs": [
        {
          "internalType": "uint256",
          "name": "_index",
          "type": "uint256"
        }
      ],
      "name": "getContent",
      "outputs": [
        {
          "internalType": "string",
          "name": "",
          "type": "string"
        }
      ],
      "stateMutability": "view",
      "type": "function"
    },
    {
      "inputs": [],
      "name": "getContentLength",
      "outputs": [
        {
          "internalType": "uint256",
          "name": "",
          "type": "uint256"
        }
      ],
      "stateMutability": "view",
      "type": "function"
    },
    {
      "inputs": [],
      "name": "getReward",
      "outputs": [],
      "stateMutability": "nonpayable",
      "type": "function"
    },
    {
      "inputs": [],
      "name": "getRewardForDuration",
      "outputs": [
        {
          "internalType": "uint256",
          "name": "",
          "type": "uint256"
        }
      ],
      "stateMutability": "view",
      "type": "function"
    },
    {
      "inputs": [
        {
          "internalType": "address",
          "name": "spender",
          "type": "address"
        },
        {
          "internalType": "uint256",
          "name": "addedValue",
          "type": "uint256"
        }
      ],
      "name": "increaseAllowance",
      "outputs": [
        {
          "internalType": "bool",
          "name": "",
          "type": "bool"
        }
      ],
      "stateMutability": "nonpayable",
      "type": "function"
    },
    {
      "inputs": [],
      "name": "lastTimeRewardApplicable",
      "outputs": [
        {
          "internalType": "uint256",
          "name": "",
          "type": "uint256"
        }
      ],
      "stateMutability": "view",
      "type": "function"
    },
    {
      "inputs": [],
      "name": "lastUpdateTime",
      "outputs": [
        {
          "internalType": "uint256",
          "name": "",
          "type": "uint256"
        }
      ],
      "stateMutability": "view",
      "type": "function"
    },
    {
      "inputs": [
        {
          "internalType": "address",
          "name": "to",
          "type": "address"
        },
        {
          "internalType": "uint256",
          "name": "amount",
          "type": "uint256"
        }
      ],
      "name": "mint",
      "outputs": [],
      "stateMutability": "nonpayable",
      "type": "function"
    },
    {
      "inputs": [],
      "name": "name",
      "outputs": [
        {
          "internalType": "string",
          "name": "",
          "type": "string"
        }
      ],
      "stateMutability": "view",
      "type": "function"
    },
    {
      "inputs": [
        {
          "internalType": "address",
          "name": "owner",
          "type": "address"
        }
      ],
      "name": "nonces",
      "outputs": [
        {
          "internalType": "uint256",
          "name": "",
          "type": "uint256"
        }
      ],
      "stateMutability": "view",
      "type": "function"
    },
    {
      "inputs": [
        {
          "internalType": "uint256",
          "name": "reward",
          "type": "uint256"
        }
      ],
      "name": "notifyRewardAmount",
      "outputs": [],
      "stateMutability": "nonpayable",
      "type": "function"
    },
    {
      "inputs": [],
      "name": "owner",
      "outputs": [
        {
          "internalType": "address",
          "name": "",
          "type": "address"
        }
      ],
      "stateMutability": "view",
      "type": "function"
    },
    {
      "inputs": [],
      "name": "pause",
      "outputs": [],
      "stateMutability": "nonpayable",
      "type": "function"
    },
    {
      "inputs": [],
      "name": "paused",
      "outputs": [
        {
          "internalType": "bool",
          "name": "",
          "type": "bool"
        }
      ],
      "stateMutability": "view",
      "type": "function"
    },
    {
      "inputs": [],
      "name": "periodFinish",
      "outputs": [
        {
          "internalType": "uint256",
          "name": "",
          "type": "uint256"
        }
      ],
      "stateMutability": "view",
      "type": "function"
    },
    {
      "inputs": [
        {
          "internalType": "address",
          "name": "owner",
          "type": "address"
        },
        {
          "internalType": "address",
          "name": "spender",
          "type": "address"
        },
        {
          "internalType": "uint256",
          "name": "value",
          "type": "uint256"
        },
        {
          "internalType": "uint256",
          "name": "deadline",
          "type": "uint256"
        },
        {
          "internalType": "uint8",
          "name": "v",
          "type": "uint8"
        },
        {
          "internalType": "bytes32",
          "name": "r",
          "type": "bytes32"
        },
        {
          "internalType": "bytes32",
          "name": "s",
          "type": "bytes32"
        }
      ],
      "name": "permit",
      "outputs": [],
      "stateMutability": "nonpayable",
      "type": "function"
    },
    {
      "inputs": [
        {
          "internalType": "address",
          "name": "tokenAddress",
          "type": "address"
        },
        {
          "internalType": "uint256",
          "name": "tokenAmount",
          "type": "uint256"
        }
      ],
      "name": "recoverERC20",
      "outputs": [],
      "stateMutability": "nonpayable",
      "type": "function"
    },
    {
      "inputs": [],
      "name": "renounceOwnership",
      "outputs": [],
      "stateMutability": "nonpayable",
      "type": "function"
    },
    {
      "inputs": [],
      "name": "rewardPerToken",
      "outputs": [
        {
          "internalType": "uint256",
          "name": "",
          "type": "uint256"
        }
      ],
      "stateMutability": "view",
      "type": "function"
    },
    {
      "inputs": [],
      "name": "rewardPerTokenStored",
      "outputs": [
        {
          "internalType": "uint256",
          "name": "",
          "type": "uint256"
        }
      ],
      "stateMutability": "view",
      "type": "function"
    },
    {
      "inputs": [],
      "name": "rewardRate",
      "outputs": [
        {
          "internalType": "uint256",
          "name": "",
          "type": "uint256"
        }
      ],
      "stateMutability": "view",
      "type": "function"
    },
    {
      "inputs": [
        {
          "internalType": "address",
          "name": "",
          "type": "address"
        }
      ],
      "name": "rewards",
      "outputs": [
        {
          "internalType": "uint256",
          "name": "",
          "type": "uint256"
        }
      ],
      "stateMutability": "view",
      "type": "function"
    },
    {
      "inputs": [],
      "name": "rewardsDuration",
      "outputs": [
        {
          "internalType": "uint256",
          "name": "",
          "type": "uint256"
        }
      ],
      "stateMutability": "view",
      "type": "function"
    },
    {
      "inputs": [
        {
          "internalType": "uint256",
          "name": "_rewardsDuration",
          "type": "uint256"
        }
      ],
      "name": "setRewardsDuration",
      "outputs": [],
      "stateMutability": "nonpayable",
      "type": "function"
    },
    {
      "inputs": [],
      "name": "snapshot",
      "outputs": [],
      "stateMutability": "nonpayable",
      "type": "function"
    },
    {
      "inputs": [
        {
          "internalType": "uint256",
          "name": "amount",
          "type": "uint256"
        }
      ],
      "name": "stake",
      "outputs": [],
      "stateMutability": "nonpayable",
      "type": "function"
    },
    {
      "inputs": [],
      "name": "symbol",
      "outputs": [
        {
          "internalType": "string",
          "name": "",
          "type": "string"
        }
      ],
      "stateMutability": "view",
      "type": "function"
    },
    {
      "inputs": [],
      "name": "totalSupply",
      "outputs": [
        {
          "internalType": "uint256",
          "name": "",
          "type": "uint256"
        }
      ],
      "stateMutability": "view",
      "type": "function"
    },
    {
      "inputs": [
        {
          "internalType": "uint256",
          "name": "snapshotId",
          "type": "uint256"
        }
      ],
      "name": "totalSupplyAt",
      "outputs": [
        {
          "internalType": "uint256",
          "name": "",
          "type": "uint256"
        }
      ],
      "stateMutability": "view",
      "type": "function"
    },
    {
      "inputs": [],
      "name": "totalSupplyStaked",
      "outputs": [
        {
          "internalType": "uint256",
          "name": "",
          "type": "uint256"
        }
      ],
      "stateMutability": "view",
      "type": "function"
    },
    {
      "inputs": [
        {
          "internalType": "address",
          "name": "recipient",
          "type": "address"
        },
        {
          "internalType": "uint256",
          "name": "amount",
          "type": "uint256"
        }
      ],
      "name": "transfer",
      "outputs": [
        {
          "internalType": "bool",
          "name": "",
          "type": "bool"
        }
      ],
      "stateMutability": "nonpayable",
      "type": "function"
    },
    {
      "inputs": [
        {
          "internalType": "address",
          "name": "sender",
          "type": "address"
        },
        {
          "internalType": "address",
          "name": "recipient",
          "type": "address"
        },
        {
          "internalType": "uint256",
          "name": "amount",
          "type": "uint256"
        }
      ],
      "name": "transferFrom",
      "outputs": [
        {
          "internalType": "bool",
          "name": "",
          "type": "bool"
        }
      ],
      "stateMutability": "nonpayable",
      "type": "function"
    },
    {
      "inputs": [
        {
          "internalType": "address",
          "name": "newOwner",
          "type": "address"
        }
      ],
      "name": "transferOwnership",
      "outputs": [],
      "stateMutability": "nonpayable",
      "type": "function"
    },
    {
      "inputs": [],
      "name": "unpause",
      "outputs": [],
      "stateMutability": "nonpayable",
      "type": "function"
    },
    {
      "inputs": [
        {
          "internalType": "uint256",
          "name": "timestamp",
          "type": "uint256"
        }
      ],
      "name": "updatePeriodFinish",
      "outputs": [],
      "stateMutability": "nonpayable",
      "type": "function"
    },
    {
      "inputs": [
        {
          "internalType": "address",
          "name": "",
          "type": "address"
        }
      ],
      "name": "userRewardPerTokenPaid",
      "outputs": [
        {
          "internalType": "uint256",
          "name": "",
          "type": "uint256"
        }
      ],
      "stateMutability": "view",
      "type": "function"
    },
    {
      "inputs": [
        {
          "internalType": "string",
          "name": "_con",
          "type": "string"
        },
        {
          "internalType": "uint256",
          "name": "_index",
          "type": "uint256"
        },
        {
          "internalType": "uint256",
          "name": "_amount",
          "type": "uint256"
        }
      ],
      "name": "voteCaption",
      "outputs": [],
      "stateMutability": "nonpayable",
      "type": "function"
    },
    {
      "inputs": [
        {
          "internalType": "string",
          "name": "_con",
          "type": "string"
        },
        {
          "internalType": "uint256",
          "name": "_amount",
          "type": "uint256"
        }
      ],
      "name": "voteContent",
      "outputs": [],
      "stateMutability": "nonpayable",
      "type": "function"
    },
    {
      "inputs": [
        {
          "internalType": "uint256",
          "name": "amount",
          "type": "uint256"
        }
      ],
      "name": "withdraw",
      "outputs": [],
      "stateMutability": "nonpayable",
      "type": "function"
    }
  ],
  "bytecode": "0x6101406040527f6e71edae12b1b97f4d1f60370fef10105fa2faae0126114a169c64845d6126c9610120908152506000600f55600060105562093a806011553480156200004b57600080fd5b506040518060400160405280600c81526020017f43757261746f72546f6b656e0000000000000000000000000000000000000000815250806040518060400160405280600181526020017f31000000000000000000000000000000000000000000000000000000000000008152506040518060400160405280600c81526020017f43757261746f72546f6b656e00000000000000000000000000000000000000008152506040518060400160405280600381526020017f4d544b000000000000000000000000000000000000000000000000000000000081525081600390805190602001906200013d9291906200097f565b508060049080519060200190620001569291906200097f565b506012600560006101000a81548160ff021916908360ff16021790555050506000620001876200030860201b60201c565b905080600a60006101000a81548173ffffffffffffffffffffffffffffffffffffffff021916908373ffffffffffffffffffffffffffffffffffffffff1602179055508073ffffffffffffffffffffffffffffffffffffffff16600073ffffffffffffffffffffffffffffffffffffffff167f8be0079c531659141344cd1fd0a4f28419497f9722a3daafe3b4186f6b6457e060405160405180910390a3506000600a60146101000a81548160ff02191690831515021790555060008280519060200120905060008280519060200120905060007f8b73c3c69bb8fe3d512ecc4cf759cc79239f7b179b0ffacaa9a75d522b39400f90508260c081815250508160e081815250506200029e6200031060201b60201c565b60a08181525050620002b88184846200031860201b60201c565b608081815250508061010081815250505050505050506001600c819055506200030233620002eb6200038f60201b60201c565b60ff16600a0a620f424002620003a660201b60201c565b62000a35565b600033905090565b600046905090565b60008383836200032d6200031060201b60201c565b30604051602001808681526020018581526020018481526020018381526020018273ffffffffffffffffffffffffffffffffffffffff168152602001955050505050506040516020818303038152906040528051906020012090509392505050565b6000600560009054906101000a900460ff16905090565b600073ffffffffffffffffffffffffffffffffffffffff168273ffffffffffffffffffffffffffffffffffffffff1614156200044a576040517f08c379a000000000000000000000000000000000000000000000000000000000815260040180806020018281038252601f8152602001807f45524332303a206d696e7420746f20746865207a65726f20616464726573730081525060200191505060405180910390fd5b6200045e600083836200058460201b60201c565b6200047a816002546200062560201b620033171790919060201c565b600281905550620004d8816000808573ffffffffffffffffffffffffffffffffffffffff1673ffffffffffffffffffffffffffffffffffffffff168152602001908152602001600020546200062560201b620033171790919060201c565b6000808473ffffffffffffffffffffffffffffffffffffffff1673ffffffffffffffffffffffffffffffffffffffff168152602001908152602001600020819055508173ffffffffffffffffffffffffffffffffffffffff16600073ffffffffffffffffffffffffffffffffffffffff167fddf252ad1be2c89b69c2b068fc378daa952ba7f163c4a11628f55a4df523b3ef836040518082815260200191505060405180910390a35050565b62000594620006ae60201b60201c565b1562000608576040517f08c379a00000000000000000000000000000000000000000000000000000000081526004018080602001828103825260108152602001807f5061757361626c653a207061757365640000000000000000000000000000000081525060200191505060405180910390fd5b62000620838383620006c560201b6200339f1760201c565b505050565b600080828401905083811015620006a4576040517f08c379a000000000000000000000000000000000000000000000000000000000815260040180806020018281038252601b8152602001807f536166654d6174683a206164646974696f6e206f766572666c6f77000000000081525060200191505060405180910390fd5b8091505092915050565b6000600a60149054906101000a900460ff16905090565b620006dd838383620007c060201b620034591760201c565b600073ffffffffffffffffffffffffffffffffffffffff168373ffffffffffffffffffffffffffffffffffffffff1614156200073a576200072482620007c560201b60201c565b620007346200082860201b60201c565b620007bb565b600073ffffffffffffffffffffffffffffffffffffffff168273ffffffffffffffffffffffffffffffffffffffff16141562000797576200078183620007c560201b60201c565b620007916200082860201b60201c565b620007ba565b620007a883620007c560201b60201c565b620007b982620007c560201b60201c565b5b5b505050565b505050565b62000825600660008373ffffffffffffffffffffffffffffffffffffffff1673ffffffffffffffffffffffffffffffffffffffff16815260200190815260200160002062000819836200084c60201b60201c565b6200089460201b60201c565b50565b6200084a60076200083e6200092760201b60201c565b6200089460201b60201c565b565b60008060008373ffffffffffffffffffffffffffffffffffffffff1673ffffffffffffffffffffffffffffffffffffffff168152602001908152602001600020549050919050565b6000620008ad60096200093160201b6200345e1760201c565b905080620008c4846000016200093f60201b60201c565b1015620009225782600001819080600181540180825580915050600190039060005260206000200160009091909190915055826001018290806001815401808255809150506001900390600052602060002001600090919091909150555b505050565b6000600254905090565b600081600001549050919050565b600080828054905014156200095857600090506200097a565b816001838054905003815481106200096c57fe5b906000526020600020015490505b919050565b828054600181600116156101000203166002900490600052602060002090601f016020900481019282620009b7576000855562000a03565b82601f10620009d257805160ff191683800117855562000a03565b8280016001018555821562000a03579182015b8281111562000a02578251825591602001919060010190620009e5565b5b50905062000a12919062000a16565b5090565b5b8082111562000a3157600081600090555060010162000a17565b5090565b60805160a05160c05160e05161010051610120516152c762000a7f60003980612cc6525080613bd6525080613c18525080613bf7525080613b7c525080613bab52506152c76000f3fe608060405234801561001057600080fd5b50600436106103415760003560e01c806379cc6790116101b8578063a9059cbb11610104578063dd62ed3e116100a2578063e2863f3d1161007c578063e2863f3d146109d8578063e9fad8ee146109f4578063ebe2b12b146109fe578063f2fde38b14610a1c57610341565b8063dd62ed3e1461096e578063dd870fea1461099e578063df136d65146109ba57610341565b8063c8f33c91116100de578063c8f33c91146108fa578063cc1a378f14610918578063cd3daf9d14610934578063d505accf1461095257610341565b8063a9059cbb1461086a578063baa0b8061461089a578063bf9c89bb146108ca57610341565b80638b876347116101715780639711715a1161014b5780639711715a146107e4578063981b24d0146107ee578063a457c2d71461081e578063a694fc3a1461084e57610341565b80638b876347146107785780638da5cb5b146107a857806395d89b41146107c657610341565b806379cc6790146106ca5780637b0a47ee146106e65780637ecebe001461070457806380faa57d146107345780638456cb59146107525780638980f11f1461075c57610341565b806339509351116102925780634ee2cd7e116102305780635c975abb1161020a5780635c975abb14610654578063631b8ad31461067257806370a0823114610690578063715018a6146106c057610341565b80634ee2cd7e146105ea57806355081c9b1461061a578063556f6e6b1461063857610341565b80633f4ba83a1161026c5780633f4ba83a1461058c57806340c10f191461059657806342966c68146105b257806345fbabf6146105ce57610341565b806339509351146105365780633c6b16ab146105665780633d18b9121461058257610341565b806319c90e5f116102ff5780632e1a7d4d116102d95780632e1a7d4d146104c0578063313ce567146104dc5780633644e515146104fa578063386a95251461051857610341565b806319c90e5f146104425780631c1f78eb1461047257806323b872dd1461049057610341565b80628cc2621461034657806306fdde03146103765780630700037d14610394578063095ea7b3146103c45780630b7ad54c146103f457806318160ddd14610424575b600080fd5b610360600480360381019061035b9190614a65565b610a38565b60405161036d9190614e57565b60405180910390f35b61037e610b56565b60405161038b9190614e35565b60405180910390f35b6103ae60048036038101906103a99190614a65565b610bf8565b6040516103bb9190614e57565b60405180910390f35b6103de60048036038101906103d99190614bb7565b610c10565b6040516103eb9190614dff565b60405180910390f35b61040e60048036038101906104099190614cef565b610c2e565b60405161041b9190614e35565b60405180910390f35b61042c610ce7565b6040516104399190614e57565b60405180910390f35b61045c60048036038101906104579190614bf3565b610cf1565b6040516104699190614e57565b60405180910390f35b61047a610d25565b6040516104879190614e57565b60405180910390f35b6104aa60048036038101906104a59190614aca565b610d43565b6040516104b79190614dff565b60405180910390f35b6104da60048036038101906104d59190614cef565b610e1c565b005b6104e46111d0565b6040516104f19190614e72565b60405180910390f35b6105026111e7565b60405161050f9190614e1a565b60405180910390f35b6105206111f6565b60405161052d9190614e57565b60405180910390f35b610550600480360381019061054b9190614bb7565b6111fc565b60405161055d9190614dff565b60405180910390f35b610580600480360381019061057b9190614cef565b6112af565b005b61058a6115d1565b005b6105946118f2565b005b6105b060048036038101906105ab9190614bb7565b6119ab565b005b6105cc60048036038101906105c79190614cef565b611a68565b005b6105e860048036038101906105e39190614c88565b611a7c565b005b61060460048036038101906105ff9190614bb7565b611b71565b6040516106119190614e57565b60405180910390f35b610622611be1565b60405161062f9190614e57565b60405180910390f35b610652600480360381019061064d9190614cef565b611bee565b005b61065c611d8d565b6040516106699190614dff565b60405180910390f35b61067a611da4565b6040516106879190614e57565b60405180910390f35b6106aa60048036038101906106a59190614a65565b611dae565b6040516106b79190614e57565b60405180910390f35b6106c8611df6565b005b6106e460048036038101906106df9190614bb7565b611f66565b005b6106ee611fc8565b6040516106fb9190614e57565b60405180910390f35b61071e60048036038101906107199190614a65565b611fce565b60405161072b9190614e57565b60405180910390f35b61073c61201e565b6040516107499190614e57565b60405180910390f35b61075a612031565b005b61077660048036038101906107719190614bb7565b6120ea565b005b610792600480360381019061078d9190614a65565b61234d565b60405161079f9190614e57565b60405180910390f35b6107b0612365565b6040516107bd9190614de4565b60405180910390f35b6107ce61238f565b6040516107db9190614e35565b60405180910390f35b6107ec612431565b005b61080860048036038101906108039190614cef565b6124eb565b6040516108159190614e57565b60405180910390f35b61083860048036038101906108339190614bb7565b61251c565b6040516108459190614dff565b60405180910390f35b61086860048036038101906108639190614cef565b6125e9565b005b610884600480360381019061087f9190614bb7565b612949565b6040516108919190614dff565b60405180910390f35b6108b460048036038101906108af9190614cef565b612967565b6040516108c19190614e35565b60405180910390f35b6108e460048036038101906108df9190614a65565b612a23565b6040516108f19190614e57565b60405180910390f35b610902612a6c565b60405161090f9190614e57565b60405180910390f35b610932600480360381019061092d9190614cef565b612a72565b005b61093c612bbe565b6040516109499190614e57565b60405180910390f35b61096c60048036038101906109679190614b19565b612c4c565b005b61098860048036038101906109839190614a8e565b612ec3565b6040516109959190614e57565b60405180910390f35b6109b860048036038101906109b39190614bf3565b612f4a565b005b6109c2612fec565b6040516109cf9190614e57565b60405180910390f35b6109f260048036038101906109ed9190614c34565b612ff2565b005b6109fc6130ca565b005b610a0661311c565b604051610a139190614e57565b60405180910390f35b610a366004803603810190610a319190614a65565b613122565b005b6000610b4f601560008473ffffffffffffffffffffffffffffffffffffffff1673ffffffffffffffffffffffffffffffffffffffff16815260200190815260200160002054610b41670de0b6b3a7640000610b33610ae5601460008973ffffffffffffffffffffffffffffffffffffffff1673ffffffffffffffffffffffffffffffffffffffff16815260200190815260200160002054610ad7612bbe565b61346c90919063ffffffff16565b601760008973ffffffffffffffffffffffffffffffffffffffff1673ffffffffffffffffffffffffffffffffffffffff168152602001908152602001600020546134ef90919063ffffffff16565b61357590919063ffffffff16565b61331790919063ffffffff16565b9050919050565b606060038054600181600116156101000203166002900480601f016020809104026020016040519081016040528092919081815260200182805460018160011615610100020316600290048015610bee5780601f10610bc357610100808354040283529160200191610bee565b820191906000526020600020905b815481529060010190602001808311610bd157829003601f168201915b5050505050905090565b60156020528060005260406000206000915090505481565b6000610c24610c1d6135fe565b8484613606565b6001905092915050565b606060198281548110610c3d57fe5b906000526020600020018054600181600116156101000203166002900480601f016020809104026020016040519081016040528092919081815260200182805460018160011615610100020316600290048015610cdb5780601f10610cb057610100808354040283529160200191610cdb565b820191906000526020600020905b815481529060010190602001808311610cbe57829003601f168201915b50505050509050919050565b6000600254905090565b6018818051602081018201805184825260208301602085012081835280955050505050506000915090508060000154905081565b6000610d3e6011546010546134ef90919063ffffffff16565b905090565b6000610d508484846137fd565b610e1184610d5c6135fe565b610e0c8560405180606001604052806028815260200161519660289139600160008b73ffffffffffffffffffffffffffffffffffffffff1673ffffffffffffffffffffffffffffffffffffffff1681526020019081526020016000206000610dc26135fe565b73ffffffffffffffffffffffffffffffffffffffff1673ffffffffffffffffffffffffffffffffffffffff16815260200190815260200160002054613abe9092919063ffffffff16565b613606565b600190509392505050565b6002600c541415610e95576040517f08c379a000000000000000000000000000000000000000000000000000000000815260040180806020018281038252601f8152602001807f5265656e7472616e637947756172643a207265656e7472616e742063616c6c0081525060200191505060405180910390fd5b6002600c8190555033610ea6612bbe565b601381905550610eb461201e565b601281905550600073ffffffffffffffffffffffffffffffffffffffff168173ffffffffffffffffffffffffffffffffffffffff1614610f8157610ef781610a38565b601560008373ffffffffffffffffffffffffffffffffffffffff1673ffffffffffffffffffffffffffffffffffffffff16815260200190815260200160002081905550601354601460008373ffffffffffffffffffffffffffffffffffffffff1673ffffffffffffffffffffffffffffffffffffffff168152602001908152602001600020819055505b60008211610ff7576040517f08c379a00000000000000000000000000000000000000000000000000000000081526004018080602001828103825260118152602001807f43616e6e6f74207769746864726177203000000000000000000000000000000081525060200191505060405180910390fd5b61100c8260165461346c90919063ffffffff16565b60168190555061106482601760003373ffffffffffffffffffffffffffffffffffffffff1673ffffffffffffffffffffffffffffffffffffffff1681526020019081526020016000205461346c90919063ffffffff16565b601760003373ffffffffffffffffffffffffffffffffffffffff1673ffffffffffffffffffffffffffffffffffffffff16815260200190815260200160002081905550600d60009054906101000a900473ffffffffffffffffffffffffffffffffffffffff1673ffffffffffffffffffffffffffffffffffffffff1663a9059cbb33846040518363ffffffff1660e01b8152600401808373ffffffffffffffffffffffffffffffffffffffff16815260200182815260200192505050602060405180830381600087803b15801561113a57600080fd5b505af115801561114e573d6000803e3d6000fd5b505050506040513d602081101561116457600080fd5b8101908080519060200190929190505050503373ffffffffffffffffffffffffffffffffffffffff167f7084f5476618d8e60b11ef0d7d3f06914655adb8793e28ff7f018d4c76d505d5836040518082815260200191505060405180910390a2506001600c8190555050565b6000600560009054906101000a900460ff16905090565b60006111f1613b78565b905090565b60115481565b60006112a56112096135fe565b846112a0856001600061121a6135fe565b73ffffffffffffffffffffffffffffffffffffffff1673ffffffffffffffffffffffffffffffffffffffff16815260200190815260200160002060008973ffffffffffffffffffffffffffffffffffffffff1673ffffffffffffffffffffffffffffffffffffffff1681526020019081526020016000205461331790919063ffffffff16565b613606565b6001905092915050565b60006112b9612bbe565b6013819055506112c761201e565b601281905550600073ffffffffffffffffffffffffffffffffffffffff168173ffffffffffffffffffffffffffffffffffffffff16146113945761130a81610a38565b601560008373ffffffffffffffffffffffffffffffffffffffff1673ffffffffffffffffffffffffffffffffffffffff16815260200190815260200160002081905550601354601460008373ffffffffffffffffffffffffffffffffffffffff1673ffffffffffffffffffffffffffffffffffffffff168152602001908152602001600020819055505b600f5442106113bd576113b26011548361357590919063ffffffff16565b60108190555061141f565b60006113d442600f5461346c90919063ffffffff16565b905060006113ed601054836134ef90919063ffffffff16565b9050611416601154611408838761331790919063ffffffff16565b61357590919063ffffffff16565b60108190555050505b6000600e60009054906101000a900473ffffffffffffffffffffffffffffffffffffffff1673ffffffffffffffffffffffffffffffffffffffff166370a08231306040518263ffffffff1660e01b8152600401808273ffffffffffffffffffffffffffffffffffffffff16815260200191505060206040518083038186803b1580156114aa57600080fd5b505afa1580156114be573d6000803e3d6000fd5b505050506040513d60208110156114d457600080fd5b810190808051906020019092919050505090506114fc6011548261357590919063ffffffff16565b6010541115611573576040517f08c379a00000000000000000000000000000000000000000000000000000000081526004018080602001828103825260188152602001807f50726f76696465642072657761726420746f6f2068696768000000000000000081525060200191505060405180910390fd5b4260128190555061158f6011544261331790919063ffffffff16565b600f819055507fde88a922e0d3b88b24e9623efeb464919c6bf9f66857a65e2bfcf2ce87a9433d836040518082815260200191505060405180910390a1505050565b6002600c54141561164a576040517f08c379a000000000000000000000000000000000000000000000000000000000815260040180806020018281038252601f8152602001807f5265656e7472616e637947756172643a207265656e7472616e742063616c6c0081525060200191505060405180910390fd5b6002600c819055503361165b612bbe565b60138190555061166961201e565b601281905550600073ffffffffffffffffffffffffffffffffffffffff168173ffffffffffffffffffffffffffffffffffffffff1614611736576116ac81610a38565b601560008373ffffffffffffffffffffffffffffffffffffffff1673ffffffffffffffffffffffffffffffffffffffff16815260200190815260200160002081905550601354601460008373ffffffffffffffffffffffffffffffffffffffff1673ffffffffffffffffffffffffffffffffffffffff168152602001908152602001600020819055505b6000601560003373ffffffffffffffffffffffffffffffffffffffff1673ffffffffffffffffffffffffffffffffffffffff16815260200190815260200160002054905060008111156118e6576000601560003373ffffffffffffffffffffffffffffffffffffffff1673ffffffffffffffffffffffffffffffffffffffff16815260200190815260200160002081905550600e60009054906101000a900473ffffffffffffffffffffffffffffffffffffffff1673ffffffffffffffffffffffffffffffffffffffff1663a9059cbb33836040518363ffffffff1660e01b8152600401808373ffffffffffffffffffffffffffffffffffffffff16815260200182815260200192505050602060405180830381600087803b15801561185b57600080fd5b505af115801561186f573d6000803e3d6000fd5b505050506040513d602081101561188557600080fd5b8101908080519060200190929190505050503373ffffffffffffffffffffffffffffffffffffffff167fe2403640ba68fed3a2f88b7557551d1993f84b99bb10ff833f0cf8db0c5e0486826040518082815260200191505060405180910390a25b50506001600c81905550565b6118fa6135fe565b73ffffffffffffffffffffffffffffffffffffffff16611918612365565b73ffffffffffffffffffffffffffffffffffffffff16146119a1576040517f08c379a00000000000000000000000000000000000000000000000000000000081526004018080602001828103825260208152602001807f4f776e61626c653a2063616c6c6572206973206e6f7420746865206f776e657281525060200191505060405180910390fd5b6119a9613c42565b565b6119b36135fe565b73ffffffffffffffffffffffffffffffffffffffff166119d1612365565b73ffffffffffffffffffffffffffffffffffffffff1614611a5a576040517f08c379a00000000000000000000000000000000000000000000000000000000081526004018080602001828103825260208152602001807f4f776e61626c653a2063616c6c6572206973206e6f7420746865206f776e657281525060200191505060405180910390fd5b611a648282613d2d565b5050565b611a79611a736135fe565b82613ef4565b50565b80601560003373ffffffffffffffffffffffffffffffffffffffff1673ffffffffffffffffffffffffffffffffffffffff168152602001908152602001600020541015611ac857600080fd5b611b1a81601560003373ffffffffffffffffffffffffffffffffffffffff1673ffffffffffffffffffffffffffffffffffffffff1681526020019081526020016000205461346c90919063ffffffff16565b50611b6b81601885604051611b2f9190614dcd565b90815260200160405180910390206001018481548110611b4b57fe5b90600052602060002090600202016001015461331790919063ffffffff16565b50505050565b6000806000611bbe84600660008873ffffffffffffffffffffffffffffffffffffffff1673ffffffffffffffffffffffffffffffffffffffff1681526020019081526020016000206140b8565b9150915081611bd557611bd085611dae565b611bd7565b805b9250505092915050565b6000601980549050905090565b611bf66135fe565b73ffffffffffffffffffffffffffffffffffffffff16611c14612365565b73ffffffffffffffffffffffffffffffffffffffff1614611c9d576040517f08c379a00000000000000000000000000000000000000000000000000000000081526004018080602001828103825260208152602001807f4f776e61626c653a2063616c6c6572206973206e6f7420746865206f776e657281525060200191505060405180910390fd5b6000611ca7612bbe565b601381905550611cb561201e565b601281905550600073ffffffffffffffffffffffffffffffffffffffff168173ffffffffffffffffffffffffffffffffffffffff1614611d8257611cf881610a38565b601560008373ffffffffffffffffffffffffffffffffffffffff1673ffffffffffffffffffffffffffffffffffffffff16815260200190815260200160002081905550601354601460008373ffffffffffffffffffffffffffffffffffffffff1673ffffffffffffffffffffffffffffffffffffffff168152602001908152602001600020819055505b81600f819055505050565b6000600a60149054906101000a900460ff16905090565b6000601654905090565b60008060008373ffffffffffffffffffffffffffffffffffffffff1673ffffffffffffffffffffffffffffffffffffffff168152602001908152602001600020549050919050565b611dfe6135fe565b73ffffffffffffffffffffffffffffffffffffffff16611e1c612365565b73ffffffffffffffffffffffffffffffffffffffff1614611ea5576040517f08c379a00000000000000000000000000000000000000000000000000000000081526004018080602001828103825260208152602001807f4f776e61626c653a2063616c6c6572206973206e6f7420746865206f776e657281525060200191505060405180910390fd5b600073ffffffffffffffffffffffffffffffffffffffff16600a60009054906101000a900473ffffffffffffffffffffffffffffffffffffffff1673ffffffffffffffffffffffffffffffffffffffff167f8be0079c531659141344cd1fd0a4f28419497f9722a3daafe3b4186f6b6457e060405160405180910390a36000600a60006101000a81548173ffffffffffffffffffffffffffffffffffffffff021916908373ffffffffffffffffffffffffffffffffffffffff160217905550565b6000611fa5826040518060600160405280602481526020016151be60249139611f9686611f916135fe565b612ec3565b613abe9092919063ffffffff16565b9050611fb983611fb36135fe565b83613606565b611fc38383613ef4565b505050565b60105481565b6000612017600b60008473ffffffffffffffffffffffffffffffffffffffff1673ffffffffffffffffffffffffffffffffffffffff16815260200190815260200160002061345e565b9050919050565b600061202c42600f5461420f565b905090565b6120396135fe565b73ffffffffffffffffffffffffffffffffffffffff16612057612365565b73ffffffffffffffffffffffffffffffffffffffff16146120e0576040517f08c379a00000000000000000000000000000000000000000000000000000000081526004018080602001828103825260208152602001807f4f776e61626c653a2063616c6c6572206973206e6f7420746865206f776e657281525060200191505060405180910390fd5b6120e8614228565b565b6120f26135fe565b73ffffffffffffffffffffffffffffffffffffffff16612110612365565b73ffffffffffffffffffffffffffffffffffffffff1614612199576040517f08c379a00000000000000000000000000000000000000000000000000000000081526004018080602001828103825260208152602001807f4f776e61626c653a2063616c6c6572206973206e6f7420746865206f776e657281525060200191505060405180910390fd5b600d60009054906101000a900473ffffffffffffffffffffffffffffffffffffffff1673ffffffffffffffffffffffffffffffffffffffff168273ffffffffffffffffffffffffffffffffffffffff161415612240576040517f08c379a000000000000000000000000000000000000000000000000000000000815260040180806020018281038252602181526020018061524c6021913960400191505060405180910390fd5b8173ffffffffffffffffffffffffffffffffffffffff1663a9059cbb612264612365565b836040518363ffffffff1660e01b8152600401808373ffffffffffffffffffffffffffffffffffffffff16815260200182815260200192505050602060405180830381600087803b1580156122b857600080fd5b505af11580156122cc573d6000803e3d6000fd5b505050506040513d60208110156122e257600080fd5b8101908080519060200190929190505050507f8c1256b8896378cd5044f80c202f9772b9d77dc85c8a6eb51967210b09bfaa288282604051808373ffffffffffffffffffffffffffffffffffffffff1681526020018281526020019250505060405180910390a15050565b60146020528060005260406000206000915090505481565b6000600a60009054906101000a900473ffffffffffffffffffffffffffffffffffffffff16905090565b606060048054600181600116156101000203166002900480601f0160208091040260200160405190810160405280929190818152602001828054600181600116156101000203166002900480156124275780601f106123fc57610100808354040283529160200191612427565b820191906000526020600020905b81548152906001019060200180831161240a57829003601f168201915b5050505050905090565b6124396135fe565b73ffffffffffffffffffffffffffffffffffffffff16612457612365565b73ffffffffffffffffffffffffffffffffffffffff16146124e0576040517f08c379a00000000000000000000000000000000000000000000000000000000081526004018080602001828103825260208152602001807f4f776e61626c653a2063616c6c6572206973206e6f7420746865206f776e657281525060200191505060405180910390fd5b6124e8614314565b50565b60008060006124fb8460076140b8565b91509150816125115761250c610ce7565b612513565b805b92505050919050565b60006125df6125296135fe565b846125da8560405180606001604052806025815260200161526d60259139600160006125536135fe565b73ffffffffffffffffffffffffffffffffffffffff1673ffffffffffffffffffffffffffffffffffffffff16815260200190815260200160002060008a73ffffffffffffffffffffffffffffffffffffffff1673ffffffffffffffffffffffffffffffffffffffff16815260200190815260200160002054613abe9092919063ffffffff16565b613606565b6001905092915050565b6002600c541415612662576040517f08c379a000000000000000000000000000000000000000000000000000000000815260040180806020018281038252601f8152602001807f5265656e7472616e637947756172643a207265656e7472616e742063616c6c0081525060200191505060405180910390fd5b6002600c81905550612672611d8d565b156126e5576040517f08c379a00000000000000000000000000000000000000000000000000000000081526004018080602001828103825260108152602001807f5061757361626c653a207061757365640000000000000000000000000000000081525060200191505060405180910390fd5b336126ee612bbe565b6013819055506126fc61201e565b601281905550600073ffffffffffffffffffffffffffffffffffffffff168173ffffffffffffffffffffffffffffffffffffffff16146127c95761273f81610a38565b601560008373ffffffffffffffffffffffffffffffffffffffff1673ffffffffffffffffffffffffffffffffffffffff16815260200190815260200160002081905550601354601460008373ffffffffffffffffffffffffffffffffffffffff1673ffffffffffffffffffffffffffffffffffffffff168152602001908152602001600020819055505b6000821161283f576040517f08c379a000000000000000000000000000000000000000000000000000000000815260040180806020018281038252600e8152602001807f43616e6e6f74207374616b65203000000000000000000000000000000000000081525060200191505060405180910390fd5b6128548260165461331790919063ffffffff16565b6016819055506128ac82601760003373ffffffffffffffffffffffffffffffffffffffff1673ffffffffffffffffffffffffffffffffffffffff1681526020019081526020016000205461331790919063ffffffff16565b601760003373ffffffffffffffffffffffffffffffffffffffff1673ffffffffffffffffffffffffffffffffffffffff168152602001908152602001600020819055503373ffffffffffffffffffffffffffffffffffffffff167f9e71bc8eea02a63969f509818f2dafb9254532904319f9dbda79b67bd34a5f3d836040518082815260200191505060405180910390a2506001600c8190555050565b600061295d6129566135fe565b84846137fd565b6001905092915050565b6019818154811061297757600080fd5b906000526020600020016000915090508054600181600116156101000203166002900480601f016020809104026020016040519081016040528092919081815260200182805460018160011615610100020316600290048015612a1b5780601f106129f057610100808354040283529160200191612a1b565b820191906000526020600020905b8154815290600101906020018083116129fe57829003601f168201915b505050505081565b6000601760008373ffffffffffffffffffffffffffffffffffffffff1673ffffffffffffffffffffffffffffffffffffffff168152602001908152602001600020549050919050565b60125481565b612a7a6135fe565b73ffffffffffffffffffffffffffffffffffffffff16612a98612365565b73ffffffffffffffffffffffffffffffffffffffff1614612b21576040517f08c379a00000000000000000000000000000000000000000000000000000000081526004018080602001828103825260208152602001807f4f776e61626c653a2063616c6c6572206973206e6f7420746865206f776e657281525060200191505060405180910390fd5b600f544211612b7b576040517f08c379a00000000000000000000000000000000000000000000000000000000081526004018080602001828103825260588152602001806150496058913960600191505060405180910390fd5b806011819055507ffb46ca5a5e06d4540d6387b930a7c978bce0db5f449ec6b3f5d07c6e1d44f2d36011546040518082815260200191505060405180910390a150565b6000806016541415612bd4576013549050612c49565b612c46612c35601654612c27670de0b6b3a7640000612c19601054612c0b601254612bfd61201e565b61346c90919063ffffffff16565b6134ef90919063ffffffff16565b6134ef90919063ffffffff16565b61357590919063ffffffff16565b60135461331790919063ffffffff16565b90505b90565b83421115612cc2576040517f08c379a000000000000000000000000000000000000000000000000000000000815260040180806020018281038252601d8152602001807f45524332305065726d69743a206578706972656420646561646c696e6500000081525060200191505060405180910390fd5b60007f0000000000000000000000000000000000000000000000000000000000000000888888612d2f600b60008e73ffffffffffffffffffffffffffffffffffffffff1673ffffffffffffffffffffffffffffffffffffffff16815260200190815260200160002061345e565b89604051602001808781526020018673ffffffffffffffffffffffffffffffffffffffff1681526020018573ffffffffffffffffffffffffffffffffffffffff16815260200184815260200183815260200182815260200196505050505050506040516020818303038152906040528051906020012090506000612db28261436c565b90506000612dc2828787876143d3565b90508973ffffffffffffffffffffffffffffffffffffffff168173ffffffffffffffffffffffffffffffffffffffff1614612e65576040517f08c379a000000000000000000000000000000000000000000000000000000000815260040180806020018281038252601e8152602001807f45524332305065726d69743a20696e76616c6964207369676e6174757265000081525060200191505060405180910390fd5b612eac600b60008c73ffffffffffffffffffffffffffffffffffffffff1673ffffffffffffffffffffffffffffffffffffffff1681526020019081526020016000206145d2565b612eb78a8a8a613606565b50505050505050505050565b6000600160008473ffffffffffffffffffffffffffffffffffffffff1673ffffffffffffffffffffffffffffffffffffffff16815260200190815260200160002060008373ffffffffffffffffffffffffffffffffffffffff1673ffffffffffffffffffffffffffffffffffffffff16815260200190815260200160002054905092915050565b601981908060018154018082558091505060019003906000526020600020016000909190919091509080519060200190612f859291906148fe565b506000601882604051612f989190614dcd565b9081526020016040518091039020600001819055507f66c66694ab68bba6c839d79e861d1d62f202ce3f10854f569f0f5074c3519dad601980549050604051612fe19190614e57565b60405180910390a150565b60135481565b80601560003373ffffffffffffffffffffffffffffffffffffffff1673ffffffffffffffffffffffffffffffffffffffff16815260200190815260200160002054101561303e57600080fd5b61309081601560003373ffffffffffffffffffffffffffffffffffffffff1673ffffffffffffffffffffffffffffffffffffffff1681526020019081526020016000205461346c90919063ffffffff16565b506130c5816018846040516130a59190614dcd565b90815260200160405180910390206000015461331790919063ffffffff16565b505050565b613112601760003373ffffffffffffffffffffffffffffffffffffffff1673ffffffffffffffffffffffffffffffffffffffff16815260200190815260200160002054610e1c565b61311a6115d1565b565b600f5481565b61312a6135fe565b73ffffffffffffffffffffffffffffffffffffffff16613148612365565b73ffffffffffffffffffffffffffffffffffffffff16146131d1576040517f08c379a00000000000000000000000000000000000000000000000000000000081526004018080602001828103825260208152602001807f4f776e61626c653a2063616c6c6572206973206e6f7420746865206f776e657281525060200191505060405180910390fd5b600073ffffffffffffffffffffffffffffffffffffffff168173ffffffffffffffffffffffffffffffffffffffff161415613257576040517f08c379a00000000000000000000000000000000000000000000000000000000081526004018080602001828103825260268152602001806150c36026913960400191505060405180910390fd5b8073ffffffffffffffffffffffffffffffffffffffff16600a60009054906101000a900473ffffffffffffffffffffffffffffffffffffffff1673ffffffffffffffffffffffffffffffffffffffff167f8be0079c531659141344cd1fd0a4f28419497f9722a3daafe3b4186f6b6457e060405160405180910390a380600a60006101000a81548173ffffffffffffffffffffffffffffffffffffffff021916908373ffffffffffffffffffffffffffffffffffffffff16021790555050565b600080828401905083811015613395576040517f08c379a000000000000000000000000000000000000000000000000000000000815260040180806020018281038252601b8152602001807f536166654d6174683a206164646974696f6e206f766572666c6f77000000000081525060200191505060405180910390fd5b8091505092915050565b6133aa838383613459565b600073ffffffffffffffffffffffffffffffffffffffff168373ffffffffffffffffffffffffffffffffffffffff1614156133f5576133e8826145e8565b6133f061463b565b613454565b600073ffffffffffffffffffffffffffffffffffffffff168273ffffffffffffffffffffffffffffffffffffffff16141561344057613433836145e8565b61343b61463b565b613453565b613449836145e8565b613452826145e8565b5b5b505050565b505050565b600081600001549050919050565b6000828211156134e4576040517f08c379a000000000000000000000000000000000000000000000000000000000815260040180806020018281038252601e8152602001807f536166654d6174683a207375627472616374696f6e206f766572666c6f77000081525060200191505060405180910390fd5b818303905092915050565b600080831415613502576000905061356f565b600082840290508284828161351357fe5b041461356a576040517f08c379a00000000000000000000000000000000000000000000000000000000081526004018080602001828103825260218152602001806151756021913960400191505060405180910390fd5b809150505b92915050565b60008082116135ec576040517f08c379a000000000000000000000000000000000000000000000000000000000815260040180806020018281038252601a8152602001807f536166654d6174683a206469766973696f6e206279207a65726f00000000000081525060200191505060405180910390fd5b8183816135f557fe5b04905092915050565b600033905090565b600073ffffffffffffffffffffffffffffffffffffffff168373ffffffffffffffffffffffffffffffffffffffff16141561368c576040517f08c379a00000000000000000000000000000000000000000000000000000000081526004018080602001828103825260248152602001806152286024913960400191505060405180910390fd5b600073ffffffffffffffffffffffffffffffffffffffff168273ffffffffffffffffffffffffffffffffffffffff161415613712576040517f08c379a00000000000000000000000000000000000000000000000000000000081526004018080602001828103825260228152602001806150e96022913960400191505060405180910390fd5b80600160008573ffffffffffffffffffffffffffffffffffffffff1673ffffffffffffffffffffffffffffffffffffffff16815260200190815260200160002060008473ffffffffffffffffffffffffffffffffffffffff1673ffffffffffffffffffffffffffffffffffffffff168152602001908152602001600020819055508173ffffffffffffffffffffffffffffffffffffffff168373ffffffffffffffffffffffffffffffffffffffff167f8c5be1e5ebec7d5bd14f71427d1e84f3dd0314c0f7b2291e5b200ac8c7c3b925836040518082815260200191505060405180910390a3505050565b600073ffffffffffffffffffffffffffffffffffffffff168373ffffffffffffffffffffffffffffffffffffffff161415613883576040517f08c379a00000000000000000000000000000000000000000000000000000000081526004018080602001828103825260258152602001806152036025913960400191505060405180910390fd5b600073ffffffffffffffffffffffffffffffffffffffff168273ffffffffffffffffffffffffffffffffffffffff161415613909576040517f08c379a00000000000000000000000000000000000000000000000000000000081526004018080602001828103825260238152602001806150266023913960400191505060405180910390fd5b61391483838361464f565b61397f8160405180606001604052806026815260200161510b602691396000808773ffffffffffffffffffffffffffffffffffffffff1673ffffffffffffffffffffffffffffffffffffffff16815260200190815260200160002054613abe9092919063ffffffff16565b6000808573ffffffffffffffffffffffffffffffffffffffff1673ffffffffffffffffffffffffffffffffffffffff16815260200190815260200160002081905550613a12816000808573ffffffffffffffffffffffffffffffffffffffff1673ffffffffffffffffffffffffffffffffffffffff1681526020019081526020016000205461331790919063ffffffff16565b6000808473ffffffffffffffffffffffffffffffffffffffff1673ffffffffffffffffffffffffffffffffffffffff168152602001908152602001600020819055508173ffffffffffffffffffffffffffffffffffffffff168373ffffffffffffffffffffffffffffffffffffffff167fddf252ad1be2c89b69c2b068fc378daa952ba7f163c4a11628f55a4df523b3ef836040518082815260200191505060405180910390a3505050565b6000838311158290613b6b576040517f08c379a00000000000000000000000000000000000000000000000000000000081526004018080602001828103825283818151815260200191508051906020019080838360005b83811015613b30578082015181840152602081019050613b15565b50505050905090810190601f168015613b5d5780820380516001836020036101000a031916815260200191505b509250505060405180910390fd5b5082840390509392505050565b60007f0000000000000000000000000000000000000000000000000000000000000000613ba36146da565b1415613bd1577f00000000000000000000000000000000000000000000000000000000000000009050613c3f565b613c3c7f00000000000000000000000000000000000000000000000000000000000000007f00000000000000000000000000000000000000000000000000000000000000007f00000000000000000000000000000000000000000000000000000000000000006146e2565b90505b90565b613c4a611d8d565b613cbc576040517f08c379a00000000000000000000000000000000000000000000000000000000081526004018080602001828103825260148152602001807f5061757361626c653a206e6f742070617573656400000000000000000000000081525060200191505060405180910390fd5b6000600a60146101000a81548160ff0219169083151502179055507f5db9ee0a495bf2e6ff9c91a7834c1ba4fdd244a5e8aa4e537bd38aeae4b073aa613d006135fe565b604051808273ffffffffffffffffffffffffffffffffffffffff16815260200191505060405180910390a1565b600073ffffffffffffffffffffffffffffffffffffffff168273ffffffffffffffffffffffffffffffffffffffff161415613dd0576040517f08c379a000000000000000000000000000000000000000000000000000000000815260040180806020018281038252601f8152602001807f45524332303a206d696e7420746f20746865207a65726f20616464726573730081525060200191505060405180910390fd5b613ddc6000838361464f565b613df18160025461331790919063ffffffff16565b600281905550613e48816000808573ffffffffffffffffffffffffffffffffffffffff1673ffffffffffffffffffffffffffffffffffffffff1681526020019081526020016000205461331790919063ffffffff16565b6000808473ffffffffffffffffffffffffffffffffffffffff1673ffffffffffffffffffffffffffffffffffffffff168152602001908152602001600020819055508173ffffffffffffffffffffffffffffffffffffffff16600073ffffffffffffffffffffffffffffffffffffffff167fddf252ad1be2c89b69c2b068fc378daa952ba7f163c4a11628f55a4df523b3ef836040518082815260200191505060405180910390a35050565b600073ffffffffffffffffffffffffffffffffffffffff168273ffffffffffffffffffffffffffffffffffffffff161415613f7a576040517f08c379a00000000000000000000000000000000000000000000000000000000081526004018080602001828103825260218152602001806151e26021913960400191505060405180910390fd5b613f868260008361464f565b613ff1816040518060600160405280602281526020016150a1602291396000808673ffffffffffffffffffffffffffffffffffffffff1673ffffffffffffffffffffffffffffffffffffffff16815260200190815260200160002054613abe9092919063ffffffff16565b6000808473ffffffffffffffffffffffffffffffffffffffff1673ffffffffffffffffffffffffffffffffffffffff168152602001908152602001600020819055506140488160025461346c90919063ffffffff16565b600281905550600073ffffffffffffffffffffffffffffffffffffffff168273ffffffffffffffffffffffffffffffffffffffff167fddf252ad1be2c89b69c2b068fc378daa952ba7f163c4a11628f55a4df523b3ef836040518082815260200191505060405180910390a35050565b60008060008411614131576040517f08c379a00000000000000000000000000000000000000000000000000000000081526004018080602001828103825260168152602001807f4552433230536e617073686f743a20696420697320300000000000000000000081525060200191505060405180910390fd5b61413b600961345e565b8411156141b0576040517f08c379a000000000000000000000000000000000000000000000000000000000815260040180806020018281038252601d8152602001807f4552433230536e617073686f743a206e6f6e6578697374656e7420696400000081525060200191505060405180910390fd5b60006141c8858560000161475190919063ffffffff16565b905083600001805490508114156141e6576000809250925050614208565b60018460010182815481106141f757fe5b906000526020600020015492509250505b9250929050565b600081831061421e5781614220565b825b905092915050565b614230611d8d565b156142a3576040517f08c379a00000000000000000000000000000000000000000000000000000000081526004018080602001828103825260108152602001807f5061757361626c653a207061757365640000000000000000000000000000000081525060200191505060405180910390fd5b6001600a60146101000a81548160ff0219169083151502179055507f62e78cea01bee320cd4e420270b5ea74000d11b0c9f74754ebdbfc544b05a2586142e76135fe565b604051808273ffffffffffffffffffffffffffffffffffffffff16815260200191505060405180910390a1565b600061432060096145d2565b600061432c600961345e565b90507f8030e83b04d87bef53480e26263266d6ca66863aa8506aca6f2559d18aa1cb67816040518082815260200191505060405180910390a18091505090565b6000614376613b78565b8260405160200180807f190100000000000000000000000000000000000000000000000000000000000081525060020183815260200182815260200192505050604051602081830303815290604052805190602001209050919050565b60007f7fffffffffffffffffffffffffffffff5d576e7357a4501ddfe92f46681b20a08260001c1115614451576040517f08c379a00000000000000000000000000000000000000000000000000000000081526004018080602001828103825260228152602001806151316022913960400191505060405180910390fd5b601b8460ff1614806144665750601c8460ff16145b6144bb576040517f08c379a00000000000000000000000000000000000000000000000000000000081526004018080602001828103825260228152602001806151536022913960400191505060405180910390fd5b600060018686868660405160008152602001604052604051808581526020018460ff1681526020018381526020018281526020019450505050506020604051602081039080840390855afa158015614517573d6000803e3d6000fd5b505050602060405103519050600073ffffffffffffffffffffffffffffffffffffffff168173ffffffffffffffffffffffffffffffffffffffff1614156145c6576040517f08c379a00000000000000000000000000000000000000000000000000000000081526004018080602001828103825260188152602001807f45434453413a20696e76616c6964207369676e6174757265000000000000000081525060200191505060405180910390fd5b80915050949350505050565b6001816000016000828254019250508190555050565b614638600660008373ffffffffffffffffffffffffffffffffffffffff1673ffffffffffffffffffffffffffffffffffffffff16815260200190815260200160002061463383611dae565b614802565b50565b61464d6007614648610ce7565b614802565b565b614657611d8d565b156146ca576040517f08c379a00000000000000000000000000000000000000000000000000000000081526004018080602001828103825260108152602001807f5061757361626c653a207061757365640000000000000000000000000000000081525060200191505060405180910390fd5b6146d583838361339f565b505050565b600046905090565b60008383836146ef6146da565b30604051602001808681526020018581526020018481526020018381526020018273ffffffffffffffffffffffffffffffffffffffff168152602001955050505050506040516020818303038152906040528051906020012090509392505050565b6000808380549050141561476857600090506147fc565b600080848054905090505b808210156147bc576000614787838361487f565b90508486828154811061479657fe5b906000526020600020015411156147af578091506147b6565b6001810192505b50614773565b6000821180156147e45750838560018403815481106147d757fe5b9060005260206000200154145b156147f65760018203925050506147fc565b81925050505b92915050565b600061480e600961345e565b90508061481d846000016148c1565b101561487a5782600001819080600181540180825580915050600190039060005260206000200160009091909190915055826001018290806001815401808255809150506001900390600052602060002001600090919091909150555b505050565b6000600280838161488c57fe5b066002858161489757fe5b0601816148a057fe5b04600283816148ab57fe5b04600285816148b657fe5b040101905092915050565b600080828054905014156148d857600090506148f9565b816001838054905003815481106148eb57fe5b906000526020600020015490505b919050565b828054600181600116156101000203166002900490600052602060002090601f016020900481019282614934576000855561497b565b82601f1061494d57805160ff191683800117855561497b565b8280016001018555821561497b579182015b8281111561497a57825182559160200191906001019061495f565b5b509050614988919061498c565b5090565b5b808211156149a557600081600090555060010161498d565b5090565b60006149bc6149b784614ebe565b614e8d565b9050828152602081018484840111156149d457600080fd5b6149df848285614f74565b509392505050565b6000813590506149f681614fc9565b92915050565b600081359050614a0b81614fe0565b92915050565b600082601f830112614a2257600080fd5b8135614a328482602086016149a9565b91505092915050565b600081359050614a4a81614ff7565b92915050565b600081359050614a5f8161500e565b92915050565b600060208284031215614a7757600080fd5b6000614a85848285016149e7565b91505092915050565b60008060408385031215614aa157600080fd5b6000614aaf858286016149e7565b9250506020614ac0858286016149e7565b9150509250929050565b600080600060608486031215614adf57600080fd5b6000614aed868287016149e7565b9350506020614afe868287016149e7565b9250506040614b0f86828701614a3b565b9150509250925092565b600080600080600080600060e0888a031215614b3457600080fd5b6000614b428a828b016149e7565b9750506020614b538a828b016149e7565b9650506040614b648a828b01614a3b565b9550506060614b758a828b01614a3b565b9450506080614b868a828b01614a50565b93505060a0614b978a828b016149fc565b92505060c0614ba88a828b016149fc565b91505092959891949750929550565b60008060408385031215614bca57600080fd5b6000614bd8858286016149e7565b9250506020614be985828601614a3b565b9150509250929050565b600060208284031215614c0557600080fd5b600082013567ffffffffffffffff811115614c1f57600080fd5b614c2b84828501614a11565b91505092915050565b60008060408385031215614c4757600080fd5b600083013567ffffffffffffffff811115614c6157600080fd5b614c6d85828601614a11565b9250506020614c7e85828601614a3b565b9150509250929050565b600080600060608486031215614c9d57600080fd5b600084013567ffffffffffffffff811115614cb757600080fd5b614cc386828701614a11565b9350506020614cd486828701614a3b565b9250506040614ce586828701614a3b565b9150509250925092565b600060208284031215614d0157600080fd5b6000614d0f84828501614a3b565b91505092915050565b614d2181614f15565b82525050565b614d3081614f27565b82525050565b614d3f81614f33565b82525050565b6000614d5082614eee565b614d5a8185614ef9565b9350614d6a818560208601614f83565b614d7381614fb8565b840191505092915050565b6000614d8982614eee565b614d938185614f0a565b9350614da3818560208601614f83565b80840191505092915050565b614db881614f5d565b82525050565b614dc781614f67565b82525050565b6000614dd98284614d7e565b915081905092915050565b6000602082019050614df96000830184614d18565b92915050565b6000602082019050614e146000830184614d27565b92915050565b6000602082019050614e2f6000830184614d36565b92915050565b60006020820190508181036000830152614e4f8184614d45565b905092915050565b6000602082019050614e6c6000830184614daf565b92915050565b6000602082019050614e876000830184614dbe565b92915050565b6000604051905081810181811067ffffffffffffffff82111715614eb457614eb3614fb6565b5b8060405250919050565b600067ffffffffffffffff821115614ed957614ed8614fb6565b5b601f19601f8301169050602081019050919050565b600081519050919050565b600082825260208201905092915050565b600081905092915050565b6000614f2082614f3d565b9050919050565b60008115159050919050565b6000819050919050565b600073ffffffffffffffffffffffffffffffffffffffff82169050919050565b6000819050919050565b600060ff82169050919050565b82818337600083830152505050565b60005b83811015614fa1578082015181840152602081019050614f86565b83811115614fb0576000848401525b50505050565bfe5b6000601f19601f8301169050919050565b614fd281614f15565b8114614fdd57600080fd5b50565b614fe981614f33565b8114614ff457600080fd5b50565b61500081614f5d565b811461500b57600080fd5b50565b61501781614f67565b811461502257600080fd5b5056fe45524332303a207472616e7366657220746f20746865207a65726f206164647265737350726576696f7573207265776172647320706572696f64206d75737420626520636f6d706c657465206265666f7265206368616e67696e6720746865206475726174696f6e20666f7220746865206e657720706572696f6445524332303a206275726e20616d6f756e7420657863656564732062616c616e63654f776e61626c653a206e6577206f776e657220697320746865207a65726f206164647265737345524332303a20617070726f766520746f20746865207a65726f206164647265737345524332303a207472616e7366657220616d6f756e7420657863656564732062616c616e636545434453413a20696e76616c6964207369676e6174757265202773272076616c756545434453413a20696e76616c6964207369676e6174757265202776272076616c7565536166654d6174683a206d756c7469706c69636174696f6e206f766572666c6f7745524332303a207472616e7366657220616d6f756e74206578636565647320616c6c6f77616e636545524332303a206275726e20616d6f756e74206578636565647320616c6c6f77616e636545524332303a206275726e2066726f6d20746865207a65726f206164647265737345524332303a207472616e736665722066726f6d20746865207a65726f206164647265737345524332303a20617070726f76652066726f6d20746865207a65726f206164647265737343616e6e6f7420776974686472617720746865207374616b696e6720746f6b656e45524332303a2064656372656173656420616c6c6f77616e63652062656c6f77207a65726fa2646970667358221220de75f22df0caa0cc2314a85d202203d8cc57b996f77301e0ab2866808ea8379a64736f6c63430007060033",
  "linkReferences": {},
  "deployedLinkReferences": {}
}